:020000040800F2
:10000000E006002089010008550B00084D0B000890
:10001000510B0008F1020008311100080000000037
:100020000000000000000000000000002511000892
:10003000F502000800000000410C0008291100082A
:10004000A3010008A3010008A3010008A301000800
:10005000A3010008A3010008A3010008A3010008F0
:10006000A3010008A3010008A3010008A3010008E0
:10007000A3010008A3010008A3010008A3010008D0
:10008000A3010008A3010008A3010008A3010008C0
:10009000A3010008A3010008A3010008A3010008B0
:1000A000A3010008A3010008A3010008A3010008A0
:1000B000A3010008A3010008A3010008A301000890
:1000C000A3010008A3010008A3010008A301000880
:1000D000A3010008A3010008A3010008A301000870
:1000E000A3010008A3010008A301000800F002F822
:1000F00000F03AF80AA090E8000C82448344AAF188
:100100000107DA4501D100F02FF8AFF2090EBAE885
:100110000F0013F0010F18BFFB1A43F0010318473B
:10012000C8180000E8180000103A24BF78C878C149
:10013000FAD8520724BF30C830C144BF04680C60ED
:10014000704700000023002400250026103A28BF35
:1001500078C1FBD8520728BF30C148BF0B60704739
:100160001FB51FBD10B510BD00F037F81146FFF7E1
:10017000F7FF00F0DFFF00F055F803B4FFF7F2FFE0
:1001800003BC00F059F800000948804709480047BF
:10019000FEE7FEE7FEE7FEE7FEE7FEE7FEE7FEE737
:1001A000FEE7FEE704480549054A064B7047000094
:1001B0002D110008ED000008E0000020E0060020FE
:1001C000E0020020E0020020704770477047000006
:1001D000004870471800002070477546FFF7F8FF89
:1001E000AE4605006946534620F00700854618B024
:1001F00020B5FFF7D7FFBDE820404FF000064FF0D5
:1002000000074FF000084FF0000BAC46ACE8C00907
:10021000ACE8C009ACE8C009ACE8C00921F00701AE
:100220008D46704710B50446AFF300802046BDE808
:100230001040FFF7A2BF000001491820ABBEFEE747
:100240002600020042F20040C4F201000168890762
:1002500009D4016889075CBF01685FEA817102D433
:1002600001688907F2D5C06C6FF31F30704700003A
:1002700041F21800C4F20200016841F0040101607B
:1002800040F60001C4F201010A6822F00F020A6080
:10029000016841F40071016042F20841C4F20101B9
:1002A0000A6822F001020A6050F8142C42F400425D
:1002B00040F8142C0020C862886840F00400886070
:1002C000086840F003000860086840F48000086097
:1002D0007047000042F20840C4F20100016841F09A
:1002E00001010160016841F4800101607047000074
:1002F000FEE70000704700002DE9F04F41F2597C05
:100300000323CDF2B71C42F2107205460A2D11D319
:10031000642D2FD3B5F57A7F0DD3A5FB0C649542E0
:100320004FEA543503F10403F0D2033B0022CA54D0
:1003300033B99BE0023B0022002BCA5400F09680A8
:100340004CF6CD4AA3F1010E13F00304CCF6CC4ACF
:1003500042D0A0FB0A56F50805EB8506A0EB460641
:1003600046F03006012C01F80E6009D1734628468C
:1003700032E000BF013B0022002BCA54E0D175E0FF
:10038000A5FB0A6848F21F564FEAD807C5F2EB16DC
:1003900007EB8707A0FB0669A5EB47059E1E45F006
:1003A0003005022C4FEA59148D5503D133462046AF
:1003B00012E000BFA4FB0A5644F6D355C1F2620511
:1003C000A0FB0505F00800EB8000A4EB4000033B18
:1003D00040F03000C854A809BEF1030F38BFBDE893
:1003E000F08F44F6D358A1F10209C1F2620800BFB0
:1003F00048F21F51A0FB0A56C5F2EB11F508A0FB0D
:100400000164A0FB086164098909A5FB0A6BA4FBD0
:100410000A62A1FB0A67A0FB0C6E05EB8506A0EB48
:10042000460040F0300009EB030670704FEADB0035
:1004300000EB8000A5EB400040F0300009F803001D
:10044000D00800EB8000A4EB400040F0300006F83C
:10045000010CF80800EB8000A1EB400040F03000F8
:10046000043B06F8020C4FEA5E30C1D1BDE8F08FC4
:10047000B0B5044600F024F9054640F20000C2F28F
:1004800000000078611C18BF044400BF00F018F998
:10049000401BA042FAD3B0BD2DE9F04F82B00E68E8
:1004A000002E00F0038141F20042C4F20102042355
:1004B00040F2004E904208BF03234FF6FF7CC4F287
:1004C000010E009300240123C1F2100C4FF0000A2A
:1004D0004FF0000949E000BF012704F00C030F2290
:1004E0009A402BEA020207FA03F34FEA9A051A43ED
:1004F00046F82520D1F804B040F20C455FEACB2243
:10050000DEF8082054BF22EA080242EA0802C4F2D8
:100510000105CEF808202A685FEA8B2354BF22EA3F
:10052000080242EA08022A605FEA8B33DEF8042000
:1005300054BF22EA080242EA08025FEACB33CEF84F
:100540000420DEF800204FF0010354BF22EA080225
:1005500042EA0802CEF800200E680AF1010A36FAD3
:100560000AF204F1040400F0A18003FA0AF816EA82
:10057000080FF1D04E68664512DC122E56D8DFE81F
:1005800006F0350B45495555555555555555555555
:100590005555554D510000BFD1F80C9046E000BFB5
:1005A0004FF6FF72C1F2210296420FDC0022C1F227
:1005B000110296421AD00022C1F21202964215D0C0
:1005C0000022C1F22102964210D02FE00022C1F297
:1005D000220296420AD00022C1F23102964205D090
:1005E0000022C1F23202964220D100BF8A684AB18D
:1005F000012A14BFC0F81480C0F810804FF0080919
:1006000014E000BF4FF0040910E000BFCA6802F117
:1006100008090BE04FF0000908E000BFCA6802F1CA
:10062000040903E0CA6802F10C0900BF224606462D
:10063000BAF1080F24BF203A043637680F259540D9
:1006400027EA050509FA02F22A433260CA79D2067E
:100650007FF582AF41F21803C4F202031A68AEF5C7
:100660007E7642F001021A601A6802F001020192DD
:10067000019A2AF0030256F802B040F60002C4F2D2
:100680000102904210D040F60042C4F201029042B2
:100690003FF422AF41F20002C4F20102009F9042F7
:1006A00008BF022719E700BF002716E702B0BDE820
:1006B000F08F0000002A08BF0904016170470000A4
:1006C00040F2DC00C2F200000068704740F2000017
:1006D00040F2DC01C2F20000C2F2000100780A68B8
:1006E000104408607047000080B542F20000C4F278
:1006F0000200016841F010010160032000F07AF867
:100700000F2000F005F800F027F8002080BD000061
:1007100070B540F20006C2F2000640F214013278D1
:10072000C2F200014FF47A730968B3FBF2F2044697
:10073000B1FBF2F1084600F0F3F90F2C4FF0010580
:1007400008D838B94FF0FF3021460022002500F0CC
:1007500025F87460284670BD82B041F21800C4F2DA
:1007600002000168022241F001010160016801F00C
:10077000010101910199416841F080514160406857
:1007800000F08050009000980420C4F2010001683D
:1007900062F31A61016002B07047000010B54EF6B6
:1007A0000C5CCEF2000CDCF80030C3F3022E8EF0AD
:1007B0000704042C28BF0424BEF103034FF0FF3EBE
:1007C0000EFA04F438BF0023A14399400EFA03F354
:1007D0009A43114300F00F0200F160430901043A0B
:1007E00003F564436244002848BF02F10C0319700A
:1007F00010BD00004EF60C51CEF200010A684FF613
:10080000FF031A4060F30A2242F0806040F0FD705E
:100810000860704770B538B10446406A30B10020B6
:10082000206104F1140007E0012070BD6068B0F59C
:10083000827F03D004F11C00002101600026A66223
:1008400094F8510020B9204684F8506000F038F840
:10085000022084F8510094E8071001F482710368C3
:1008600002F4044223F040030360236911440CF4B2
:100870000062114403F002026369114403F00102B3
:10088000A369E569114403F40072114405F03802CC
:10089000256A114405F08002A56A114305F400524F
:1008A00011430160042101EA13414160C16921F44F
:1008B0000061C1610120666584F85100304670BD59
:1008C00080B586B0014640F60000C4F20100096818
:1008D00000F5205300229942049201D006B080BD59
:1008E00041F21801C4F202010A6842F480520A601F
:1008F0000A6802F480520192019A0A6842F00402E6
:100900000A60096801F0040101910199A021029196
:10091000022103910321059102A9FFF7BDFD06B055
:1009200080BD00002DE9F04182B0044690F85000EF
:10093000012803D1022002B0BDE8F08101201D464C
:1009400016460F4684F85000FFF7BAFE94F851108F
:1009500001290DD18046002F4FF0010018BF002E55
:100960000ED1002184F8501002B0BDE8F08100BF24
:100970000220002184F8501002B0BDE8F08100BFD1
:100980000320002184F8510061652763A686E6866E
:10099000A163A187E187A0682164B0F5004F2068BA
:1009A000616407D1016821F040010160016841F4F0
:1009B000804101600168490603D4016841F04001AB
:1009C00001606168731EE268B1FA81F1B3FA83F3E2
:1009D00049095B09B2F5006F41EA03013CD131B12D
:1009E00037F8021BC1602763E08E0138E086E08E95
:1009F00000286BD0681C0CD11DE000BF216B31F8C2
:100A0000022BC2602163E08E0138E086E08E002870
:100A10005CD0206881688907F0D4FFF751FEA0EB15
:100A20000800A842F2D3032071E000BFFFF748FEA0
:100A3000E08E00284AD0206881688907F6D5216BAE
:100A400031F8022BC2602163E08E0138E086E08E2F
:100A50000028F0D13AE000BF39B139780173206B3A
:100A600001302063E08E0138E086E08E70B3681CB0
:100A70000BD11BE0216B09780173206B01302063DF
:100A8000E08E0138E086E08E00B320688168890737
:100A9000F0D4FFF715FEA0EB0800A842F3D3032023
:100AA00035E000BFFFF70CFEE08E78B1206881686A
:100AB0008907F7D5216B09780173206B013020631A
:100AC000E08E0138E086E08E0028EFD120468021BC
:100AD0002A46434600F0B6F828B1606D40F0200089
:100AE000606520206065A06838B90020019020680A
:100AF000C1680191806801900198606D30B101205A
:100B0000002184F8501002B0BDE8F08100200121DE
:100B100084F85110002184F8501002B0BDE8F08133
:100B2000411E0020B0EB116F1CBF012070474EF238
:100B30001002CEF2000251604EF62351CEF20001B7
:100B4000F0230B700721906011607047FEE70000F2
:100B5000FEE70000FEE7000070B584B040F27806C2
:100B6000C2F200060D4631461446FFF7C5FB40F2BF
:100B7000100040F20801C2F20000C2F20001008839
:100B8000D1E900314FF0000CCDE90010A8B2A1B2BC
:100B90003246CDF808C000F07DFA04B070BD000008
:100BA00041F20000C4F20200016841F480310160AA
:100BB0000168890309D4016889035CBF01685FEAA1
:100BC000813102D401688903F2D5416821F47C1196
:100BD0004160416841F4E8114160016841F0807171
:100BE00001600168890109D4016889015CBF01685D
:100BF0005FEA811102D401688901F2D5416843F6A8
:100C0000F37291434160416840F2024211434160F6
:100C10000BE000BF416801F00C01082908BF7047D4
:100C2000416801F00C01082909D0416801F00C016C
:100C3000082904D0416801F00C010829EAD1704765
:100C4000704700002DE9F04182B01E4690460D46E7
:100C50000446FFF735FD301A00EB0807FFF730FDBB
:100C600040F21401C2F200010968C1F3CB317943AB
:100C7000019121688A682A40AA4227D1064618F1C4
:100C800001001FD0FFF71CFD801BB84222D2019843
:100C900001990028A1F1010101912168896808BF2B
:100CA000074601EA0500A842ECD00FE0886828401A
:100CB000A8420BD188682840A84207D188682840FC
:100CC000A84203D188682840A842EFD0002002B093
:100CD000BDE8F081D4E900014268B1F5827F22F0DD
:100CE000E00242600AD1A168B1F5004F02D0B1F52F
:100CF000806F03D1016821F040010160A16AB1F564
:100D0000005F07D1016821F400510160016841F4DE
:100D100000510160012084F85100002084F8500047
:100D2000032002B0BDE8F0812DE9F04782B00478DD
:100D3000002C3DD040F6004940F2840AC4F201097B
:100D4000451CC2F2000A0DF1070802E0013C200632
:100D50002ED015F8020B02218DF80700484600221C
:100D6000FFF7A8FC5046414601224FF0FF33FFF742
:100D7000D9FD15F8016C16F07F070CD0484602210A
:100D80000122FFF797FC504629463A464FF0FF33C1
:100D9000FFF7C8FD3D4470B2B0F1FF3FD6DC15F857
:100DA000010BFF2808BF4FF4FA70FFF761FBCDE796
:100DB00002B0BDE8F08700002DE9F04782B07F283F
:100DC00051D80E4682294ED8074640F600481044B6
:100DD0009246C4F20108802803EB06001C46DDF8A9
:100DE000289088BFC7F1800A832840464FF480616D
:100DF0004FF0000288BFC6F18304FFF75BFC0AEBEB
:100E00000700A11901380139C2B2CBB2F8B2F1B270
:100E100000F06CF899FA99F0ADF80600404602210E
:100E20000122FFF747FC200418BF5FEA0A4014D0F4
:100E300040F28406C2F200060DF10607554600BFD7
:100E40003046394602224FF0FF33FFF76BFD013D7C
:100E50002804F5D1013C2004F0D140464FF48061D4
:100E60000122FFF727FC02B0BDE8F08780B582B011
:100E700084460020002180228323CDF800C0FFF7A4
:100E80009BFF02B080BD000010B540F60044C4F2E4
:100E9000010420464FF480610022FFF70BFC20463E
:100EA00001210022FFF706FC0520FFF7E1FA2046AA
:100EB00001210122FFF7FEFB41F67410C0F600008D
:100EC000FFF732FF41F6AF10C0F60000FFF72CFF2E
:100ED00041F6BC10C0F60000FFF726FF20464FF495
:100EE00080610122BDE81040FFF7E4BB2DE9F04727
:100EF00082B040F6004A07462A20C4F2010A16468C
:100F000089468DF8050050460221002298460024AB
:100F1000FFF7D0FB40F28405C2F200050DF1050198
:100F2000284601224FF0FF33FFF7FCFCB81C8DF878
:100F30000200B01C8DF804005046022101228DF8F9
:100F400001408DF80340FFF7B5FB0DF1010628467F
:100F5000314604224FF0FF33FFF7E4FC2B208DF8DD
:100F60000600504602210022FFF7A4FB0DF1060106
:100F7000284601224FF0FF33FFF7D4FC50460221F0
:100F800001228DF802908DF80480FFF793FB28462C
:100F9000314604224FF0FF33FFF7C4FC2C208DF8BC
:100FA0000700504602210022FFF784FB0DF10701E4
:100FB000284601224FF0FF33FFF7B4FC02B0BDE832
:100FC000F08700002DE9F04F85B01D4614461A1831
:100FD000C3F3072601EB1323013A013BD2B2DBB284
:100FE000C0B2C9B2FFF782FF002E02964ED0EEB219
:100FF000002E4BD0DDE90F320299A4F1200040F61B
:10100000004440F2840548434FEA13284FEA122A6D
:101010000021C4F20104C2F200050DF11207019093
:1010200005E000BF03990298013181422ED001985A
:10103000039108440E994FF0000B31F8109014E022
:10104000109802218DF81100204601228DF810A081
:10105000FFF730FB284604A902224FF0FF33FFF7C9
:1010600061FC0BF1010B5E45DCD009FA0BF00004CA
:10107000E6D50F9802218DF81300204601228DF845
:101080001280FFF717FB28463946E5E705B0BDE8B3
:10109000F08F00002DE9F04F85B007460E9892467C
:1010A000049040F600400D46DDE90F6BC4F20100EC
:1010B0004FF4806100221C46FFF7FCFA9AF80020EA
:1010C00022B3C4F307285FFA84F90AF1010A0EE09B
:1010D0000498A9B2CDE90006B8B2D2B22346CDF841
:1010E00008B0FFF76FFF4F441AF8012B72B1B8B286
:1010F00048448028ECD34544A8B24044822805D80F
:10110000D0B220284FF00007E2D1EDE740F60040D2
:10111000C4F201004FF48061012205B0BDE8F04F38
:10112000FFF7C8BA70470000FFF7D0BA7047000059
:10113000FEE7000084B0FFF7D7FAFFF731FD41F278
:101140001800C4F20200016840F6004441F020019A
:1011500001600168C4F2010401F0200100910099CE
:101160000168002241F004010160016840F2034679
:1011700001F00401009100990168002541F0080187
:101180000160006840F2034100F008000090009800
:101190002046FFF78FFA0120CDE9010502200390D8
:1011A000694620460096FFF777F940F2840004F57F
:1011B0001051C2F200004FF482724FF400434FF41A
:1011C000007680E82E000A21C0E90455C0E90665D2
:1011D000C0E90855C0E90A51FFF71CFB20B1EFF345
:1011E000108072B6FEE700BFFFF74EFEFFF740F833
:1011F0000020FFF73BFEFFF76DF8FFF723F8002113
:101200002822FFF7A9FCF3E700000000000000001F
:1012100000000000000000000000000000100010AE
:10122000001000100010001000000010000000006E
:101230000028002800280000000000000000000036
:101240000000000000240024007C00240048007CF2
:1012500000480048000000000038005400500038EA
:101260000014005400540038001000000020005406
:10127000005800300028005400140008000000004E
:1012800000100028002800100034004800480034F6
:10129000000000000010001000100000000000001E
:1012A00000000000000000000008001000200020E6
:1012B0000020002000200020001000080020001066
:1012C00000080008000800080008000800100020BE
:1012D000001000380010002800000000000000008E
:1012E000000000000000000000100010007C001052
:1012F00000100000000000000000000000000000DE
:1013000000000000000000100010001000000000AD
:101310000000000000000038000000000000000095
:1013200000000000000000000000000000000010AD
:10133000000000000008000800100010001000105D
:101340000020002000000000003800440044005449
:101350000044004400440038000000000010003049
:1013600000500010001000100010001000000000DD
:101370000038004400440004000800100020007CF5
:1013800000000000003800440004001800040004BD
:101390000044003800000000000800180028002861
:1013A0000048007C0008000800000000007C0040AD
:1013B00000400078000400040044003800000000F1
:1013C00000380044004000780044004400440038E5
:1013D00000000000007C0004000800100010002045
:1013E00000200020000000000038004400440038C5
:1013F000004400440044003800000000003800446D
:1014000000440044003C0004004400380000000098
:1014100000000000001000000000000000000010AC
:1014200000000000000000000000001000000000AC
:10143000000000100010001000000000000C003040
:1014400000400030000C0000000000000000000020
:101450000000007C0000007C000000000000000094
:101460000000000000600018000400180060000088
:1014700000000000003800440004000800100010C4
:10148000000000100000000000380044004C005430
:10149000005C004000400038000000000010002800
:1014A000002800280028007C0044004400000000C0
:1014B0000078004400440078004400440044007870
:1014C00000000000003800440040004000400040A0
:1014D0000044003800000000007000480044004450
:1014E000004400440048007000000000007C004000
:1014F0000040007C004000400040007C00000000F4
:10150000007C004000400078004000400040004067
:10151000000000000038004400400040005C00442F
:101520000044003800000000004400440044007CF7
:101530000044004400440044000000000038001053
:101540000010001000100010001000380000000013
:1015500000040004000400040004000400440038F7
:1015600000000000004400480050006000500048A7
:1015700000480044000000000040004000400040DF
:10158000004000400040007C000000000044006C6F
:10159000006C00540044004400440044000000007B
:1015A00000440064006400540054004C004C0044AB
:1015B000000000000038004400440044004400449F
:1015C000004400380000000000780044004400445B
:1015D0000078004000400040000000000038004457
:1015E000004400440044004400540038000400005B
:1015F000007800440044004400780048004800445B
:1016000000000000003800440040003000080004E2
:101610000044003800000000007C001000100010A2
:1016200000100010001000100000000000440044F2
:10163000004400440044004400440038000000001E
:101640000044004400440028002800280010001036
:101650000000000000440044005400540054006C9A
:101660000028002800000000004400280028001086
:10167000001000280028004400000000004400443E
:1016800000280028001000100010001000000000CA
:10169000007C000400080010001000200040007CC6
:1016A00000000000001800100010001000100010D2
:1016B0000010001000100018002000200010001082
:1016C00000100010000800080000000000300010AA
:1016D000001000100010001000100010001000306A
:1016E0000010002800280044000000000000000056
:1016F00000000000000000000000000000000000EA
:1017000000000000000000FE0020001000000000AB
:1017100000000000000000000000000000000000C9
:1017200000380044003C0044004C0034000000003D
:101730000040004000580064004400440064005829
:10174000000000000000000000380044004000409D
:101750000044003800000000000400040034004C85
:1017600000440044004C0034000000000000000071
:1017700000380044007C00400044003800000000B5
:10178000000C0010007C0010001000100010001071
:1017900000000000000000000034004C0044004441
:1017A000004C003400040078004000400058006401
:1017B0000044004400440044000000000010000009
:1017C0000070001000100010001000100000000059
:1017D0000010000000700010001000100010001039
:1017E000001000E000400040004800500060005041
:1017F00000480044000000000070001000100010BD
:101800000010001000100010000000000000000098
:1018100000780054005400540054005400000000AC
:1018200000000000005800640044004400440044EC
:1018300000000000000000000038004400440044A4
:101840000044003800000000000000000058006460
:1018500000440044006400580040004000000000C4
:101860000034004C00440044004C003400040004E8
:1018700000000000005800640040004000400040AC
:1018800000000000000000000038004400300008A4
:1018900000440038000000000020002000780020F4
:1018A00000200020002000180000000000000000C0
:1018B0000044004400440044004C00340000000098
:1018C0000000000000440044002800280028001008
:1018D0000000000000000000005400540054006CA0
:1018E000002800280000000000000000004400283C
:1018F000001000100028004400000000000000005C
:10190000004400440028002800100010001000606F
:1019100000000000007C0008001000200040007C57
:10192000000000000018001000100010002000202F
:10193000001000100010001800100010001000101F
:1019400000100010001000100010001000300010F7
:1019500000100010000800080010001000100030F7
:101960000000000000000074004C000000000000B7
:10197000000000000F0180961180FFB103012C2DA3
:10198000B203012C2DB306012C2D012C2DB401071F
:10199000C003A20284C101C5C2020A00C3028A2A8E
:1019A000C4028AEEC5010E20003601C83A010502C4
:1019B0002A040000007F2B040000007F04E01002D6
:1019C0001C07123732292D29252B3900010310E17C
:1019D00010031D07062E2C292D2E2E373F00000246
:1019E0001013800A29806400081A000800000020F3
:1019F0001800000028010008201A00081800002024
:101A0000C8060000440100080100000010000000AA
:101A1000070A000008120008E00700000024F40094
:04000005080000ED02
:00000001FF
