:020000040800F2
:1000000000500020ED0C0008910C0008970C00082F
:100010009D0C0008A30C0008A90C000800000000BB
:10002000000000000000000000000000AF0C00080D
:10003000BB0C000800000000C70C0008D30C00082F
:10004000350D0008350D0008350D0008350D000888
:10005000350D0008350D0008350D0008350D000878
:10006000350D0008350D0008350D0008350D000868
:10007000350D0008350D0008350D0008350D000858
:10008000350D0008350D0008350D0008350D000848
:10009000350D0008350D0008350D0008350D000838
:1000A000350D0008350D0008350D0008350D000828
:1000B000350D0008350D0008350D0008350D000818
:1000C000350D0008350D0008350D0008350D000808
:1000D000350D0008350D000811050008350D000824
:1000E000350D0008350D0008350D00080000000032
:1000F0000000000000000000000000000000000000
:0C01000000000000000000005FF808F1A3
:10010C0010B5054C237833B9044B13B10448AFF345
:10011C0000800123237010BD14000020000000009B
:10012C003420000808B5034B1BB103490348AFF357
:10013C00008008BD000000001800002034200008DA
:10014C0080B483B000AF0346FB7197F90730002BE6
:10015C000BDBFB7903F01F02064997F907305B09AB
:10016C00012000FA02F241F8232000BF0C37BD46F3
:10017C0080BC704700E100E080B400AF074B9B6986
:10018C00064A43F004039361054B1B68044A23F0B1
:10019C000F03136000BFBD4680BC704700100240C7
:1001AC000008014080B400AF104B9B690F4A43F428
:1001BC00007393610E4B9B680D4A23F0010393600F
:1001CC000B4B00225A630A4B07221A61084B9B689F
:1001DC00074A43F001039360054B9B68044A43F4C0
:1001EC008003936000BFBD4680BC70470010024086
:1001FC000024014080B483B000AF054BDB6CC3F32B
:10020C000B037B607B6818460C37BD4680BC70477F
:10021C000024014080B400AF104B9B690F4A43F09F
:10022C00040393610E4B1B680D4A23F47F43136048
:10023C000B4B1B680A4A43F430631360084B1B6872
:10024C00074A43F400431360054BDB68044A43F050
:10025C000803D36000BFBD4680BC7047001002404D
:10026C000008014080B400AF154BDB69144A43F41D
:10027C000033D361134B0022DA60124B00221A6157
:10028C00104B40F6A6629A600E4BDB680D4A43F0A9
:10029C002003D3600B4BDB680A4A43F00C03D3609A
:1002AC00084BDB68074A43F40053D360054B1B69CA
:1002BC00044A43F40053136100BFBD4680BC704731
:1002CC00001002400044004080B483B000AF78605E
:1002DC007A6813469B001344044AA2FB0323DB08F1
:1002EC0018460C37BD4680BC704700BFCDCCCCCC7B
:1002FC0080B489B000AF78604FF47A737B610323CC
:10030C003B617B68FB61FB69FB60FA687B6992FB74
:10031C00F3F3FB60FB687A6902FB03F3FA69D31A07
:10032C00FB617B69204A82FB03129210DB17D31A04
:10033C007B61FB68DBB23033DAB21C4B5A701B4B5F
:10034C002E229A700123BB6124E0FB69FB60FA68E2
:10035C007B6992FBF3F3FB60FB687A6902FB03F3A6
:10036C00FA69D31AFB617B690F4A82FB0312921064
:10037C00DB17D31A7B61FB68DBB23033D9B20B4A83
:10038C003B6913440A461A703B6901333B61BB69F4
:10039C000133BB61BB69032BD7DD00BF00BF243722
:1003AC00BD4680BC704700BF6766666600000020D3
:1003BC0080B483B000AF0346FB71134B1B68013351
:1003CC005A4203F0070302F0070258BF53420F4A88
:1003DC001268934201D1002311E00B4B1B680C49AE
:1003EC00FA79CA54084B1B6801335A4203F00703CD
:1003FC0002F0070258BF5342034A13600123184608
:10040C000C37BD4680BC7047300000203400002003
:10041C003C00002080B483B000AF134B1B685A42E1
:10042C0003F0070302F0070258BF53420F4A126849
:10043C00934201D1002311E00B4B1B680C4AD35C97
:10044C00FB71094B1B6801335A4203F0070302F09E
:10045C00070258BF5342044A1360FB7918460C3705
:10046C00BD4680BC704700BF340000203000002027
:10047C003C00002080B400AF094B1B685A4203F0CB
:10048C00070302F0070258BF5342064A1268934210
:10049C0001D1012300E000231846BD4680BC704703
:1004AC00340000203000002080B500AF00BFFFF703
:1004BC00E1FF0346002BFAD1FFF7ACFF03461846C9
:1004CC0080BD000080B400AF0C4B9B690B4A43F01D
:1004DC00040393610A4B5B68094A23F4706353600D
:1004EC00074B5B68064A43F440735360044B4FF46C
:1004FC0080621A6100BFBD4680BC7047001002408C
:10050C000008014080B582B000AF054B5B68FB7101
:10051C00FB791846FFF74CFF00BF0837BD4680BD7E
:10052C000044004080B582B000AF0346FB7100BFB1
:10053C000B4B1B6803F08003002BF9D0FFF7C2FFB5
:10054C00074AFB79536000BF054B1B6803F040035F
:10055C00002BF9D000BF00BF0837BD4680BD00BFDF
:10056C000044004080B586B002AF2620FFF7E8FDBE
:10057C000023BB60FFF700FEFFF714FEFFF772FECF
:10058C00FFF748FE354B3C221A70354A3B4692E841
:10059C0003001860043319800023FB8000F0C6FBB5
:1005AC0000F068F800F0E4F800F0AAF800F010FA97
:1005BC002C4B9B682B4A43F001039360294B9B689F
:1005CC00284A43F480039360FFF714FE0346184651
:1005DC00FFF77AFE0346244A1360234B1B68184628
:1005EC00FFF786FE0023FB6009E01C4AFB681344FE
:1005FC001B781846FFF796FFFB680133FB60FB681E
:10060C00052BF2DDFFF706FF03463C2B16D1174BEB
:10061C0000221A600EE0FFF747FF0246134B1B68DF
:10062C00D2B210333B4403F8102C104B1B6801332F
:10063C000E4A13600D4B1B68042BECDD002000F000
:10064C0053FA0B4B0093C823642209210A2000F0B3
:10065C005CFAC82000F0CCFBAAE700BF0000002029
:10066C004C200008002401404400002038000020E9
:10067C005420000880B590B000AF07F11803282271
:10068C000021184601F0A4FC3B1D00221A605A60A0
:10069C009A60DA601A610123BB614FF48033FB610D
:1006AC0000233B620123BB6202237B634FF4803344
:1006BC00BB634FF4E013FB6307F11803184600F01B
:1006CC003BFE0346002B01D000F09EF80F237B600D
:1006DC000223BB600023FB604FF480633B6100236B
:1006EC007B613B1D0221184601F0A8F80346002B44
:1006FC0001D000F089F800BF4037BD4680BD000036
:10070C0080B500AF184B194A1A60174B4FF4827220
:10071C005A60154B4FF400429A60134B0022DA607A
:10072C00114B00221A61104B00225A610E4B4FF4F0
:10073C0000729A610C4B2022DA610B4B00221A6278
:10074C00094B00225A62084B00229A62064B0A227D
:10075C00DA62054801F0CEF90346002B01D000F017
:10076C0053F800BF80BD00BF48000020003001409E
:10077C0080B588B000AF07F1100300221A605A60F0
:10078C009A60DA601E4B9B691D4A43F0200393610B
:10079C001B4B9B6903F02003FB60FB68184B9B69A8
:1007AC00174A43F004039361154B9B6903F0040350
:1007BC00BB60BB68124B9B69114A43F00803936101
:1007CC000F4B9B6903F008037B607B68002240F2AF
:1007DC0003410C4800F098FD40F203433B610123B8
:1007EC007B610023BB610223FB6107F110031946F7
:1007FC00044800F005FC00BF2037BD4680BD00BF9B
:10080C0000100240000C014080B400AF72B600BF73
:10081C00FEE7000080B500AF00224FF48061024873
:10082C0000F072FD00BF80BD000C014080B500AF30
:10083C0001224FF48061024800F066FD00BF80BDCC
:10084C00000C014080B500AF00220121064800F0E9
:10085C005BFD052000F0CCFA01220121024800F0DA
:10086C0053FD00BF80BD00BF000C014080B582B0BD
:10087C0000AF0346FB7100220221074800F044FD43
:10088C00F91D4FF0FF330122044801F0B7F900BF06
:10089C000837BD4680BD00BF000C01404800002059
:1008AC0080B582B000AF7860396001220221074820
:1008BC0000F02AFD3B689AB24FF0FF337968044888
:1008CC0001F09CF900BF0837BD4680BD000C01400B
:1008DC004800002080B584B000AF78607B685A1C5B
:1008EC007A601B78FB7334E07B685A1C7A601B7847
:1008FC00FB72FB7A1846FFF7B9FF7B685A1C7A60CB
:10090C001B78BB72BB7A9BB203F08003BB81BB7AB2
:10091C0003F07F03BB72BB7A002B08D0BB7A19465D
:10092C007868FFF7BDFFBB7A7A6813447B60BB899C
:10093C00002B0ED07B685A1C7A601B78BB81BB895C
:10094C00FF2B02D14FF4FA73BB81BB89184600F020
:10095C004FFAFB7B5A1EFA73002BC5D100BF00BFA8
:10096C001037BD4680BD90B585B000AF0446084633
:10097C0011461A462346FB710346BB710B467B712D
:10098C0013463B712A20FFF771FF00233B73FB7961
:10099C007B730023BB737B79FB7307F10C0304217E
:1009AC001846FFF77DFF2B20FFF760FFBB797B73A9
:1009BC003B79FB7307F10C0304211846FFF770FF1A
:1009CC002C20FFF753FF00BF1437BD4690BD00002D
:1009DC0080B500AFFFF71EFFFFF734FF0648FFF7A7
:1009EC0079FF0648FFF776FF0548FFF773FFFFF71F
:1009FC001DFF00BF80BD00BFE4700008207100081F
:100A0C003071000890B585B000AF04460846114619
:100A1C001A462346FB800346BB800B467B8013465D
:100A2C003B80FB887F2B57D8BB889F2B54D8FA88E8
:100A3C007B881344802B03DDFB88C3F180037B8010
:100A4C00BA883B881344A02B03DDBB88C3F1A003F9
:100A5C003B80FFF7DFFEFB88D8B2BB88D9B2FB889E
:100A6C00DAB27B88DBB21344DBB2013BDCB2BB886D
:100A7C00DAB23B88DBB21344DBB2013BDBB2224679
:100A8C00FFF771FF3B8C1B0A9BB2DBB23B733B8CB9
:100A9C00DBB27B7301220221114800F035FC3B884C
:100AAC00BB8013E07B88FB800AE007F10C014FF060
:100ABC00FF3302220B4801F0A1F8FB88013BFB80BD
:100ACC00FB88002BF1D1BB88013BBB80BB88002B82
:100ADC00E8D1FFF7ABFE00E000BF1437BD4690BD78
:100AEC00000C01404800002080B584B002AF0346E2
:100AFC00FB80FB880093A023802200210020FFF7BD
:100B0C0081FF00BF0837BD4680BD90B583B000AFF4
:100B1C000446084611461A462346FB800346BB8012
:100B2C000B467B8013463B80FB887F2B31D8BB88E0
:100B3C009F2B2ED8FA887B881344802B2BDCBA8809
:100B4C003B881344A02B28DCFFF764FEFB88D8B24B
:100B5C00BB88D9B2FB88DAB27B88DBB21344DBB238
:100B6C00013BDCB2BB88DAB23B88DBB21344DBB2AC
:100B7C00013BDBB22246FFF7F6FE7B883A8802FB8C
:100B8C0003F35B001946B869FFF78AFEFFF74EFEC8
:100B9C0004E000BF02E000BF00E000BF0C37BD4620
:100BAC0090BD000080B485B000AF154B9B69144A12
:100BBC0043F001039361124B9B6903F00103BB608B
:100BCC00BB680F4BDB690E4A43F08053D3610C4B6F
:100BDC00DB6903F080537B607B680A4B5B68FB60CE
:100BEC00FB6823F0E063FB60FB6843F00073FB6081
:100BFC00044AFB68536000BF1437BD4680BC704785
:100C0C00001002400000014080B588B000AF786051
:100C1C0007F1100300221A605A609A60DA607B6850
:100C2C001B68154A934223D1144B9B69134A43F416
:100C3C0080539361114B9B6903F48053FB60FB68F9
:100C4C000E4B9B690D4A43F0040393610B4B9B695C
:100C5C0003F00403BB60BB68A0233B6102237B61F0
:100C6C000323FB6107F110031946054800F0C8F98E
:100C7C0000BF2037BD4680BD00300140001002404F
:100C8C000008014080B400AFFEE780B400AFFEE77F
:100C9C0080B400AFFEE780B400AFFEE780B400AFD5
:100CAC00FEE780B400AF00BFBD4680BC704780B487
:100CBC0000AF00BFBD4680BC704780B400AF00BF22
:100CCC00BD4680BC704780B500AF00F075F800BF22
:100CDC0080BD80B400AF00BFBD4680BC7047000033
:100CEC00FFF7F7FF0B480C490C4A002302E0D458DD
:100CFC00C4500433C4188C42F9D3094A094C00235C
:100D0C0001E013600432A242FBD301F069F9FFF752
:100D1C0029FC704700000020140000208871000896
:100D2C0014000020A4000020FEE7000080B500AFF6
:100D3C00084B1B68074A43F010031360032000F0B4
:100D4C002BF90F2000F008F8FFF72CFF00231846B2
:100D5C0080BD00BF0020024080B582B000AF78603B
:100D6C00124B1A68124B1B7819464FF47A73B3FB6B
:100D7C00F1F3B2FBF3F3184600F035F90346002B00
:100D8C0001D001230EE07B680F2B0AD80022796872
:100D9C004FF0FF3000F00BF9064A7B68136000231C
:100DAC0000E0012318460837BD4680BD080000202E
:100DBC00100000200C00002080B400AF054B1B7805
:100DCC001A46054B1B681344034A136000BFBD460B
:100DDC0080BC704710000020A000002080B400AF41
:100DEC00024B1B681846BD4680BC7047A000002013
:100DFC0080B584B000AF7860FFF7F0FFB8607B6817
:100E0C00FB60FB68B3F1FF3F05D00A4B1B781A4619
:100E1C00FB681344FB6000BFFFF7E0FF0246BB68B2
:100E2C00D31AFA689A42F7D800BF00BF1037BD46F4
:100E3C0080BD00BF1000002080B485B000AF78608A
:100E4C007B6803F00703FB600C4BDB68BB60BA6884
:100E5C004FF6FF031340BB60FB681A02BB681343D9
:100E6C0043F0BF6343F40033BB60044ABB68D360F8
:100E7C0000BF1437BD4680BC704700BF00ED00E0DA
:100E8C0080B400AF044BDB681B0A03F00703184661
:100E9C00BD4680BC704700BF00ED00E080B483B05D
:100EAC0000AF03463960FB7197F90730002B0ADB62
:100EBC003B68DAB20C4997F907301201D2B20B44F5
:100ECC0083F800230AE03B68DAB20849FB7903F0A7
:100EDC000F03043B1201D2B20B441A7600BF0C373D
:100EEC00BD4680BC704700BF00E100E000ED00E0B3
:100EFC0080B489B000AFF860B9607A60FB6803F029
:100F0C000703FB61FB69C3F10703042B28BF042310
:100F1C00BB61FB690433062B02D9FB69033B00E080
:100F2C0000237B614FF0FF32BB6902FA03F3DA4313
:100F3C00BB681A407B699A404FF0FF317B6901FA1C
:100F4C0003F3D9437B680B40134318462437BD4643
:100F5C0080BC704780B582B000AF78607B68013B85
:100F6C00B3F1807F01D301230FE00A4A7B68013B78
:100F7C0053600F214FF0FF30FFF790FF054B00221D
:100F8C009A60044B07221A60002318460837BD46A6
:100F9C0080BD00BF10E000E080B582B000AF78608B
:100FAC007868FFF749FF00BF0837BD4680BD80B5A4
:100FBC0086B000AF0346B9607A60FB7300237B6197
:100FCC00FFF75EFF78617A68B9687869FFF790FF80
:100FDC00024697F90F3011461846FFF75FFF00BF26
:100FEC001837BD4680BD80B582B000AF7860786898
:100FFC00FFF7B0FF034618460837BD4680BD00001A
:10100C0080B48BB000AF7860396000237B62002322
:10101C003B6269E101227B6A02FA03F3FB613B68E4
:10102C001B68FA691340BB61BA69FB699A4240F0CC
:10103C0058813B685B689A4A93425ED0984A9342C7
:10104C0075D8984A934258D0964A93426FD8964A8C
:10105C00934252D0944A934269D8944A93424CD0CA
:10106C00924A934263D8924A934246D0904A934212
:10107C005DD8122B2AD8122B59D801A252F823F082
:10108C0007110008E1100008F310000835110008E2
:10109C003B1100083B1100083B1100083B110008F4
:1010AC003B1100083B1100083B1100083B110008E4
:1010BC003B1100083B1100083B1100083B110008D4
:1010CC003B110008E9100008FD100008794A934212
:1010DC0013D02CE03B68DB683B6229E03B68DB68A3
:1010EC0004333B6224E03B68DB6808333B621FE05F
:1010FC003B68DB680C333B621AE03B689B68002B57
:10110C0002D104233B6213E03B689B68012B05D1A1
:10111C0008233B627B68FA691A6109E008233B6289
:10112C007B68FA695A6103E000233B6200E000BF70
:10113C00BB69FF2B01D87B6801E07B6804337B61C2
:10114C00BB69FF2B02D87B6A9B0002E07B6A083BE1
:10115C009B003B617B691A680F213B6901FA03F321
:10116C00DB431A40396A3B6901FA03F31A437B6982
:10117C001A603B685B6803F08053002B00F0B18071
:10118C004D4B9B694C4A43F0010393614A4B9B695D
:10119C0003F00103BB60BB68484A7B6A9B080233BF
:1011AC0052F82330FB607B6A03F003039B000F2291
:1011BC0002FA03F3DB43FA681340FB607B68404A96
:1011CC00934213D07B683F4A93420DD07B683E4AD2
:1011DC00934207D07B683D4A934201D1032306E03A
:1011EC00042304E0022302E0012300E000237A6AD6
:1011FC0002F0030292009340FA681343FB602F49FC
:10120C007B6A9B080233FA6841F823203B685B68D1
:10121C0003F48013002B06D02D4B9A682C49BB6924
:10122C0013438B6006E02A4B9A68BB69DB43284961
:10123C0013408B603B685B6803F40013002B06D0F3
:10124C00234BDA682249BB691343CB6006E0204B81
:10125C00DA68BB69DB431E491340CB603B685B68B3
:10126C0003F40033002B06D0194B5A681849BB699C
:10127C0013434B6006E0164B5A68BB69DB431449B9
:10128C0013404B603B685B6803F48033002B21D028
:10129C000F4B1A680E49BB6913430B6021E000BF6A
:1012AC00000032100000311000002210000021104C
:1012BC00000012100000111000100240000001404C
:1012CC0000080140000C01400010014000140140D6
:1012DC00000401400B4B1A68BB69DB4309491340FE
:1012EC000B607B6A01337B623B681A687B6A22FA6B
:1012FC0003F3002B7FF48EAE00BF00BF2C37BD462E
:10130C0080BC70470004014080B483B000AF7860AB
:10131C000B467B8013467B707B78002B03D07A883E
:10132C007B681A6103E07B881A047B681A6100BF32
:10133C000C37BD4680BC704780B586B000AF786076
:10134C007B68002B01D1012372E27B681B6803F0E0
:10135C000103002B00F08780924B5B6803F00C03B9
:10136C00042B0CD08F4B5B6803F00C03082B12D1B1
:10137C008C4B5B6803F48033B3F5803F0BD1894B06
:10138C001B6803F40033002B6CD07B685B68002B6C
:10139C0068D101234CE27B685B68B3F5803F06D1D2
:1013AC00804B1B687F4A43F4803313602EE07B68CC
:1013BC005B68002B0CD17B4B1B687A4A23F480337F
:1013CC001360784B1B68774A23F4802313601DE06D
:1013DC007B685B68B3F5A02F0CD1724B1B68714A0C
:1013EC0043F4802313606F4B1B686E4A43F48033C5
:1013FC0013600BE06B4B1B686A4A23F48033136059
:10140C00684B1B68674A23F4802313607B685B6816
:10141C00002B13D0FFF7E2FC386108E0FFF7DEFC8D
:10142C0002463B69D31A642B01D9032300E25D4BBE
:10143C001B6803F40033002BF0D014E0FFF7CEFC54
:10144C00386108E0FFF7CAFC02463B69D31A642BEB
:10145C0001D90323ECE1534B1B6803F40033002B3D
:10146C00F0D100E000BF7B681B6803F00203002B87
:10147C0063D04C4B5B6803F00C03002B0BD0494B37
:10148C005B6803F00C03082B1CD1464B5B6803F420
:10149C008033002B16D1434B1B6803F00203002B47
:1014AC0005D07B681B69012B01D00123C0E13D4BAA
:1014BC001B6823F0F8027B685B69DB003949134336
:1014CC000B603AE07B681B69002B20D0364B012265
:1014DC001A60FFF783FC386108E0FFF77FFC0246D7
:1014EC003B69D31A022B01D90323A1E12D4B1B68B5
:1014FC0003F00203002BF0D02A4B1B6823F0F802F8
:10150C007B685B69DB00274913430B6015E0264BB6
:10151C0000221A60FFF762FC386108E0FFF75EFCFE
:10152C0002463B69D31A022B01D9032380E11D4BE0
:10153C001B6803F00203002BF0D17B681B6803F0DF
:10154C000803002B3AD07B689B69002B19D0174BF2
:10155C0001221A60FFF742FC386108E0FFF73EFCFD
:10156C0002463B69D31A022B01D9032360E10D4BD0
:10157C005B6A03F00203002BF0D0012000F09CFA10
:10158C001CE00A4B00221A60FFF728FC38610FE0C0
:10159C00FFF724FC02463B69D31A022B08D903231C
:1015AC0046E100BF0010024000004242800442426B
:1015BC00924B5B6A03F00203002BE9D17B681B683A
:1015CC0003F00403002B00F0A6800023FB758B4B6B
:1015DC00DB6903F08053002B0DD1884BDB69874A04
:1015EC0043F08053D361854BDB6903F08053BB60C0
:1015FC00BB680123FB75824B1B6803F48073002BC3
:10160C0018D17F4B1B687E4A43F480731360FFF73D
:10161C00E5FB386108E0FFF7E1FB02463B69D31AB2
:10162C00642B01D9032303E1754B1B6803F480730E
:10163C00002BF0D07B68DB68012B06D16F4B1B6A4B
:10164C006E4A43F0010313622DE07B68DB68002BCC
:10165C000CD16A4B1B6A694A23F001031362674B76
:10166C001B6A664A23F0040313621CE07B68DB6888
:10167C00052B0CD1614B1B6A604A43F004031362C7
:10168C005E4B1B6A5D4A43F0010313620BE05B4B3C
:10169C001B6A5A4A23F001031362584B1B6A574AC0
:1016AC0023F0040313627B68DB68002B15D0FFF773
:1016BC0095FB38610AE0FFF791FB02463B69D31AB0
:1016CC0041F28832934201D90323B1E04B4B1B6AA0
:1016DC0003F00203002BEED014E0FFF77FFB386120
:1016EC000AE0FFF77BFB02463B69D31A41F28832D2
:1016FC00934201D903239BE0404B1B6A03F0020386
:10170C00002BEED1FB7D012B05D13C4BDB693B4A19
:10171C0023F08053D3617B68DB69002B00F087805A
:10172C00364B5B6803F00C03082B61D07B68DB69DC
:10173C00022B46D1334B00221A60FFF74FFB386166
:10174C0008E0FFF74BFB02463B69D31A022B01D989
:10175C0003236DE0294B1B6803F00073002BF0D1C1
:10176C007B681B6AB3F5803F08D1244B5B6823F47C
:10177C0000327B689B68214913434B601F4B5B68AD
:10178C0023F474127B68196A7B685B6A0B431B49F0
:10179C0013434B601B4B01221A60FFF71FFB386190
:1017AC0008E0FFF71BFB02463B69D31A022B01D959
:1017BC0003233DE0114B1B6803F00073002BF0D0AA
:1017CC0035E0104B00221A60FFF708FB386108E087
:1017DC00FFF704FB02463B69D31A022B01D9032302
:1017EC0026E0064B1B6803F00073002BF0D11EE0C3
:1017FC007B68DB69012B07D1012319E00010024043
:10180C0000700040600042420B4B5B68FB60FB6861
:10181C0003F480327B681B6A9A4206D1FB6803F49E
:10182C0070127B685B6A9A4201D0012300E00023AE
:10183C0018461837BD4680BD0010024080B584B0F4
:10184C0000AF786039607B68002B01D10123D0E0B8
:10185C006A4B1B6803F007033A689A4210D9674B2E
:10186C001B6823F0070265493B6813430B60634B0D
:10187C001B6803F007033A689A4201D00123B8E0D1
:10188C007B681B6803F00203002B20D07B681B686D
:10189C0003F00403002B05D0594B5B68584A43F402
:1018AC00E06353607B681B6803F00803002B05D0D2
:1018BC00534B5B68524A43F460535360504B5B6824
:1018CC0023F0F0027B689B684D4913434B607B68A7
:1018DC001B6803F00103002B40D07B685B68012B75
:1018EC0007D1474B1B6803F40033002B15D10123A0
:1018FC007FE07B685B68022B07D1414B1B6803F0D0
:10190C000073002B09D1012373E03D4B1B6803F0DE
:10191C000203002B01D101236BE0394B5B6823F0F0
:10192C0003027B685B68364913434B60FFF756FA3A
:10193C00F8600AE0FFF752FA0246FB68D31A41F24C
:10194C008832934201D9032353E02D4B5B6803F09B
:10195C000C027B685B689B009A42EBD1274B1B689F
:10196C0003F007033A689A4210D2244B1B6823F009
:10197C00070222493B6813430B60204B1B6803F0A2
:10198C0007033A689A4201D0012332E07B681B6856
:10199C0003F00403002B08D0194B5B6823F4E062BE
:1019AC007B68DB68164913434B607B681B6803F04C
:1019BC000803002B09D0124B5B6823F460527B6840
:1019CC001B69DB000E4913434B6000F021F8024603
:1019DC000B4B5B681B0903F00F030A49CB5C22FA23
:1019EC0003F3094A1360094B1B681846FFF7B4F957
:1019FC00002318461037BD4680BD00BF00200240B2
:101A0C00001002405C710008080000200C0000204F
:101A1C0080B487B000AF0023FB600023BB600023C1
:101A2C007B6100237B6000233B611E4B5B68FB608A
:101A3C00FB6803F00C03042B02D0082B03D027E027
:101A4C00194B3B6127E0FB689B0C03F00F03174A13
:101A5C00D35C7B60FB6803F48033002B10D0114BFC
:101A6C005B685B0C03F00103114AD35CBB607B68C1
:101A7C000D4A03FB02F2BB68B2FBF3F37B6104E09B
:101A8C007B680C4A02FB03F37B617B693B6102E0E0
:101A9C00054B3B6100BF3B6918461C37BD4680BCFB
:101AAC00704700BF0010024000127A006C710008F1
:101ABC007C71000800093D0080B485B000AF7860EF
:101ACC000A4B1B680A4AA2FB03235B0A7A6802FBD7
:101ADC0003F3FB6000BFFB685A1EFA60002BF9D1C0
:101AEC0000BF00BF1437BD4680BC70470800002003
:101AFC00D34D621080B582B000AF78607B68002B4C
:101B0C0001D1012376E07B685B6A002B08D17B68EE
:101B1C005B68B3F5827F09D07B680022DA6105E04F
:101B2C007B6800221A617B6800225A617B68002264
:101B3C009A627B6893F85130DBB2002B06D17B683C
:101B4C00002283F850207868FFF75EF87B68022249
:101B5C0083F851207B681B681A687B681B6822F02D
:101B6C0040021A607B685B6803F482727B689B6836
:101B7C0003F404431A437B68DB6803F400631A43E1
:101B8C007B681B6903F002031A437B685B6903F0F3
:101B9C0001031A437B689B6903F400731A437B6847
:101BAC00DB6903F038031A437B681B6A03F080037C
:101BBC0042EA03017B689B6A03F400527B681B6852
:101BCC000A431A607B689B691A0C7B681B6802F0DD
:101BDC0004025A607B681B68DA697B681B6822F414
:101BEC000062DA617B6800225A657B68012283F807
:101BFC005120002318460837BD4680BD80B588B0FB
:101C0C0000AFF860B9603B601346FB800023FB77A4
:101C1C00FB6893F85030012B01D102232DE1FB68B6
:101C2C00012283F85020FFF7D9F8B861FB88FB82BA
:101C3C00FB6893F85130DBB2012B02D00223FB7707
:101C4C0016E1BB68002B02D0FB88002B02D10123CC
:101C5C00FB770DE1FB68032283F85120FB6800221F
:101C6C005A65FB68BA681A63FB68FA889A86FB683F
:101C7C00FA88DA86FB6800229A63FB6800229A874E
:101C8C00FB680022DA87FB6800225A64FB6800229A
:101C9C001A64FB689B68B3F5004F0FD1FB681B6897
:101CAC001A68FB681B6822F040021A60FB681B680C
:101CBC001A68FB681B6842F480421A60FB681B6858
:101CCC001B6803F04003402B07D0FB681B681A68A5
:101CDC00FB681B6842F040021A60FB68DB68B3F5D6
:101CEC00006F4FD1FB685B68002B02D0FB8A012B85
:101CFC0042D1FB681B6B1A88FB681B68DA60FB68B7
:101D0C001B6B9A1CFB681A63FB68DB8E9BB2013B56
:101D1C009AB2FB68DA862FE0FB681B689B6803F0BD
:101D2C000203022B12D1FB681B6B1A88FB681B6821
:101D3C00DA60FB681B6B9A1CFB681A63FB68DB8E12
:101D4C009BB2013B9AB2FB68DA8615E0FFF746F8C6
:101D5C000246BB69D31A3A689A4203D83B68B3F17E
:101D6C00FF3F02D13B68002B06D10323FB77FB68B6
:101D7C00012283F851207BE0FB68DB8E9BB2002BA9
:101D8C00CAD150E0FB685B68002B02D0FB8A012BA8
:101D9C0044D1FB681A6BFB681B680C3312781A7001
:101DAC00FB681B6B5A1CFB681A63FB68DB8E9BB2CF
:101DBC00013B9AB2FB68DA8630E0FB681B689B68D3
:101DCC0003F00203022B13D1FB681A6BFB681B6830
:101DDC000C3312781A70FB681B6B5A1CFB681A6365
:101DEC00FB68DB8E9BB2013B9AB2FB68DA8615E08E
:101DFC00FEF7F4FF0246BB69D31A3A689A4203D83D
:101E0C003B68B3F1FF3F02D13B68002B06D10323A3
:101E1C00FB77FB68012283F8512029E0FB68DB8EFD
:101E2C009BB2002BC9D1BA693968F86800F0B2F8D6
:101E3C000346002B02D0FB6820225A65FB689B6886
:101E4C00002B0AD100233B61FB681B68DB683B61FC
:101E5C00FB681B689B683B613B69FB685B6D002BF7
:101E6C0002D00123FB7703E0FB68012283F85120A9
:101E7C00FB68002283F85020FB7F18462037BD46B4
:101E8C0080BD000080B588B000AFF860B9603B60E1
:101E9C001346FB71FEF7A2FF0246BB6A9B1A3A6817
:101EAC001344FB61FEF79AFFB861394B1B685B0169
:101EBC001B0DFA6902FB03F37B6154E03B68B3F141
:101ECC00FF3F50D0FEF78AFF0246BB69D31AFA696E
:101EDC009A4202D9FB69002B3DD1FB681B685A68FA
:101EEC00FB681B6822F0E0025A60FB685B68B3F584
:101EFC00827F11D1FB689B68B3F5004F04D0FB685F
:101F0C009B68B3F5806F07D1FB681B681A68FB6888
:101F1C001B6822F040021A60FB689B6AB3F5005FF5
:101F2C000FD1FB681B681A68FB681B6822F400520F
:101F3C001A60FB681B681A68FB681B6842F4005245
:101F4C001A60FB68012283F85120FB68002283F899
:101F5C005020032317E07B69002B01D10023FB6188
:101F6C007B69013B7B61FB681B689A68BB6813400B
:101F7C00BA689A420CBF01230023DBB21A46FB79E4
:101F8C009A429BD1002318462037BD4680BD00BF26
:101F9C000800002080B586B002AFF860B9607A60A6
:101FAC007B680093BB6800228021F868FFF76AFF0A
:101FBC000346002B07D0FB685B6D43F02002FB68E7
:101FCC005A65032300E0002318461037BD4680BD38
:101FDC0003460244934200D1704703F8011BF9E712
:101FEC0070B500260C4D0D4C641BA410A64209D1F3
:101FFC0000F01AF800260A4D0A4C641BA410A642E5
:10200C0005D170BD55F8043B98470136EEE755F8FD
:10201C00043B98470136F2E7807100088071000894
:10202C008071000884710008F8B500BFF8BC08BCCA
:10203C009E467047F8B500BFF8BC08BC9E4670477A
:10204C00312E333333000000D9F6D9F6D9F6D9F650
:10205C00D9F6D9F6F9F6F9F6F8F6F8F6F8F6F8F640
:10206C00F8F6F8F6F9F6F8F6F9F6F9F6F9F6F9F6EF
:10207C00D9F6D9F6D9F6D9F6D9F6D9F6D9F6D9F6DC
:10208C00D9F6D9F6D8F6D8F6D9F6D9F6D9F6D9F6CE
:10209C00D9F6D9F6D9F6D9F6D9F6D9F6D9F6D9F6BC
:1020AC00D9F6D9F6D9F6D9F6D9F6D9F6D9F6D9F6AC
:1020BC00D9F6D9F6D9F6D9F6D9F6D9F6D9F6D9F69C
:1020CC00D9F6D9F6F8F6D9F6D8EEF8F6B7EED7F683
:1020DC0076EE96EE55F655EEF3F5F4F5D3FDD3F515
:1020EC00B3FDD3FDB2FDB2FDF3F5F3FDF3F5F3F55E
:1020FC00F3F5F3F5D3F5D3F5D3F5D3F5D3F5D3F554
:10210C00D3F5D3F5F3F5D3F5F3F5F3F5F3F5F3F5E3
:10211C00F3F5F3F5F3F5F3F5F3F5F3F5F3F5F3F573
:10212C00F3F5F3F5F3F5F3F5B3F5B3F5F4F5D3F502
:10213C0015F6F4F555F635F6B7FEB7FED8F6D8FE1B
:10214C00D8F6D8F6D9F6F8F6DAF6DAF6D9F6D9F6EC
:10215C00B9F6B9F6B9F6B9F6F9F6F9F6F9F6F9F6FB
:10216C00F8F6F8F6F8F6F8F6D8F6D8F6D8F6D8F673
:10217C00D8F6D8F6D8F6D8F6D9F6D9F6D9F6D8F6E0
:10218C00F9F6D9F6F9F6F9F6F8F6F8F6F8F6F8F6EF
:10219C00F8F6F8F6F9F6F8F6F9F6F9F6F9F6F9F6BE
:1021AC00D9F6D9F6D9F6D9F6D9F6D9F6D9F6D9F6AB
:1021BC00D9F6D9F6D8F6D8F6D9F6D9F6D9F6D9F69D
:1021CC00D9F6D9F6D9F6D9F6D9F6D9F6D9F6D9F68B
:1021DC00D9F6D9F6D9F6D9F6D9F6D9F6D9F6D9F67B
:1021EC00D9F6D9F6D9F6D9F6D9F6D9F6D9F6D9F66B
:1021FC00D9F6D9F6F8F6D9F6F8F6F8F6B7F6D8F621
:10220C0096EEB7EE55F676F614F614F6F3FDF4F5F5
:10221C00D3FDD3FDB3F5B3FDF3F5F3FDF3F5F3F512
:10222C00F3F5F3F5D3F5D3F5D3F5D3F5D3F5D3F522
:10223C00D3F5D3F5F3F5D3F5F3F5F3F5F3F5F3F5B2
:10224C00F3F5F3F5F3F5F3F5F3F5F3F5F3F5F3F542
:10225C00F3F5F3F5F3F5F3F5B3F5B3F5F4F5D3F5D1
:10226C0015F6F4F535F635F697FE97FEB8F6B7F693
:10227C00D8F6D8F6F9F6F8F6DAFED9FED9F6D9F68C
:10228C00D9F6D9F6D9F6D9F6F9F6F9F6F9F6F9F64A
:10229C00F8F6F9F6F8F6F8F6D8F6D8F6D8F6D8F641
:1022AC00D8F6D8F6D8F6D8F6D8F6D8F6D8F6D8F6B2
:1022BC00F8F6D8F6F9FEF9FED8F6D8F6F8F6F8F6F0
:1022CC00F8F6F8F6F8F6F8F6D9F6D9F6D9F6D9F60E
:1022DC00D9F6D9F6D9F6D9F6D9F6D9F6D9F6D9F67A
:1022EC00D9F6D9F6D9F6D9F6D9F6D9F6D9F6D9F66A
:1022FC00D9F6D9F6D9F6D9F6D9F6D9F6D9F6D9F65A
:10230C00D9F6D9F6D9F6D9F6D9F6D9F6D9F6D9F649
:10231C00D9F6D9F6D9F6D9F6D9F6D9F6D9F6D9F639
:10232C00D9F6D9F6F8F6D9F6F8F6F8F6D8F6F8F6AE
:10233C00B7F6B7F676F696F635FE55F614FE14FE9D
:10234C00D3F5F4FDB3F5B3F5F4F5F4F5F3F5F3F5D6
:10235C00F3F5F3F5F3F5F3F5F3F5F3F5D3F5D3F571
:10236C00D3F5D3F5D3F5D3F5F3F5F3F5F3F5F3F5A1
:10237C00F3F5F3F5F3F5F3F5F3F5F3F5F3F5F3F511
:10238C00F3F5F3F5F3F5F3F5D3F5B3F5F3F5D3F581
:10239C0014F6F4F535F615F676F656F697F676F657
:1023AC00B8F6B7F6D8F6D8F6D9FEF9FED9FED9FEAE
:1023BC00D9FED9FEF9F6F9F6F9F6F9F6F9F6F9F6C9
:1023CC00F9F6F9F6F8F6F9F6D8F6D8F6D8F6D8F60E
:1023DC00D8F6D8F6D8F6D8F6B7F697F6B8F6B7F624
:1023EC00D8FED8FEF8FED8FED8F6D8F6F8F6D8F611
:1023FC00F8F6F8F6F9F6F8F6D9F6F9F6D9F6D9F6BC
:10240C00D9F6D9F6D9F6D9F6D9F6D9F6D9F6D9F648
:10241C00D9F6D9F6D9F6D9F6D9F6D9F6D9F6D9F638
:10242C00D9F6D9F6D9F6D9F6D9F6D9F6D9F6D9F628
:10243C00D9F6D9F6D9F6D9F6D9F6D9F6D9F6D9F618
:10244C00D9F6D9F6D9F6D9F6D9F6D9F6D9F6D9F608
:10245C00D9F6D9F6D9F6D9F619F719FFF8F6F9F62F
:10246C00B7F6D8F6B7FEB7FE76FE76FE35FE55FE0D
:10247C00F4F514F6D3F5D3F5F4F5F4F5F3F5F4F52A
:10248C00F3F5F3F5F3F5F3F5F3F5F3F5D3F5D3F540
:10249C00D3F5D3F5D3F5D3F5F3F5F3F5F3F5F3F570
:1024AC00F3F5F3F5F3F5F3F5F3F5F3F5F3F5F3F5E0
:1024BC00F3F5F3F5F3F5F3F5D3F5D3F5F3F5F3F510
:1024CC0014F6F3F514F614F635F615F676F635F62D
:1024DC00B7F697F6D8FEB7FED9FED8FEF9FED9FEB0
:1024EC00F9FEF9FEF9FEF9FEF9F6F9F6F9F6F9F648
:1024FC00F9F6F9F6F9F6F9F6D8F6D8F6D8F6D8F6DC
:10250C00D8F6D8F6D8F6D8F676F676F697F676F6B6
:10251C00B7FEB7F6D8FED8FED8F6D8F6D8F6D8F669
:10252C00F8F6F8F6F9F6F9F6D9F6F9F6D9F6D9F689
:10253C00D9F6D9F6D9F6D9F6D9F6D9F6D9F6D9F617
:10254C00D9F6D9F6D9F6D9F6D9F6D9F6D9F6D9F607
:10255C00D9F6D9F6D9F6D9F6D9F6D9F6D9F6D9F6F7
:10256C00D9F6D9F6D9F6D9F6D9F6D9F6D9F6D9F6E7
:10257C00D9F6D9F6D9F6D9F6D9F6D9F6D9F6D9F6D7
:10258C00D9F6D9F6D9F6D9F6F9FEF9FEF8F6F9FE30
:10259C00D8FEF8FED8FED8FE97FEB7FE56FE76FEA5
:1025AC0035F635F6F4F514F614F614F6F4F5F4F5F0
:1025BC00F3F5F3F5F3F5F3F5F3F5F3F5F2F5D3F5F0
:1025CC00D2F5D3F5F2F5D2F5F3F5F3F5F3F5F3F522
:1025DC00F3F5F3F5F3F5F3F5F3F5F3F5F3F5F3F5AF
:1025EC00F3F5F3F5F3F5F3F5F3F5F3F5F3F5F3F59F
:1025FC00F3F5F3F514F613F614EEF4ED35F615F6D3
:10260C0076F656F697FE97FED8F6D8FED8FED8FE8C
:10261C00F9FEF8FEF9FEF9FEF9F6F9F6F9F6F9F617
:10262C00F9F6F9F6F9F6F9F6D8F6D9F6D8F6D8F6A9
:10263C00D8F6D8F6D8F6D8F635F634F655F635F68B
:10264C0096F676F6B7FEB7FED8F6D7FED8F6D8F6DD
:10265C00F8F6D8F6F9F6F9F6D8F6D9F6D9F6D9F699
:10266C00D9F6D9F6D9F6D9F6D9F6D9F6D9F6D9F6E6
:10267C00D9F6D9F6D9F6D9F6D9F6D9F6D9F6D9F6D6
:10268C00D9F6D9F6D9F6D9F6D9F6D9F6D9F6D9F6C6
:10269C00D9F6D9F6D9F6D9F6D9F6D9F6D9F6D9F6B6
:1026AC00D9F6D9F6D9F6D9F6D9F6D9F6D9F6D9F6A6
:1026BC00D9F6D9F6D9F6D9F6F9F6F9F6F9F6F9F616
:1026CC00D8F6D9FED8FED8FEB7FEB8FE96FE97FE19
:1026DC0056F676F635F655F614F614F614F614F698
:1026EC00F3F514F6F3F5F3F5F3F5F3F5F2F5F2F57E
:1026FC00D2F5D2F5F2F5D2F5F3F5D3F5F3F5F3F512
:10270C00F3F5F3F5F3F5F3F5F3F5F3F5F3F5F3F57D
:10271C00F3F5F3F5F3F5F3F5F3F5F3F5F3F5F3F56D
:10272C00F3F5F3F5F3F5F3F5F3EDD3ED14F6F4F56A
:10273C0035F635F676F655FEB7F6B7F6D7F6B7F6A4
:10274C00F8FED8FEF9FEF8FEF9F6F8F6F9F6F9F609
:10275C00F9F6F9F6F9F6F9F6D8F6D9F6D8F6D8F678
:10276C00D8F6D8F6D8F6D8F6F3EDF3ED34F614F631
:10277C0075F655F696F696F6D7FED7FED8F6D8F639
:10278C00D8F6D8F6F8F6F8F6D8F6D8F6D8F6D8FE85
:10279C00D8F6D8FED8F6D8F6D9F6D9F6D9F6D9F6B1
:1027AC00D9F6D9F6D9F6D9F6D9F6D9F6D9F6D9F6A5
:1027BC00D9F6D9F6D9F6D9F6D9F6D9F6D9F6D9F695
:1027CC00D9F6D9F6D9F6D9F6D9F6D9F6D9F6D9F685
:1027DC00D9F6D9F6D9F6D9F6D9F6D9F6D9F6D9F675
:1027EC00D9F6D9F6D9F6D9F6D9F6D9F6D9F6D9F665
:1027FC00D9F6D9F6D8FED9F6B8F6B8F697F6B8F6F3
:10280C0097F697F676F696F614F614F614F614F682
:10281C0014F614F6F3F513F6F3F5F3F5F2F5F2F509
:10282C00F2F5F2F5F2F5D2F5F3F5F2F5F3F5F3F581
:10283C00F3F5F3F5F3F5F3F5F3F5F3F5F3F5F3F54C
:10284C00F3F5F3F5F3F5F3F5F3F5F3F5F3F5F3F53C
:10285C00F3F5F2F5F3F5F3F5F3F5F3F5F3F5F3F52D
:10286C0014F614F634F614F696F696F6B7F696F6C3
:10287C00D7FED7F6F8FED8FEF9F6F8FEF9F6F9F61B
:10288C00F9F6F9F6F9F6FAF6D8F6D9F6D8F6D8F646
:10289C00D8F6D8F6D8F6D8F6D2EDD2ED14F6F3ED8C
:1028AC0055F634F676F675FED7FEB7FED8F6D7FE9B
:1028BC00D8F6D8F6F8F6D8F6D8FED8FED8FED8FE5C
:1028CC00D8FED8FED8F6D8FED9F6D9F6D9F6D9F670
:1028DC00D9F6D9F6D9F6D9F6D9F6D9F6D9F6D9F674
:1028EC00D9F6D9F6D9F6D9F6D9F6D9F6D9F6D9F664
:1028FC00D9F6D9F6D9F6D9F6D9F6D9F6D9F6D9F654
:10290C00D9F6D9F6D9F6D9F6D9F6D9F6D9F6D9F643
:10291C00D9F6D9F6D9F6D9F6B9F6B9F6D9F6D9F673
:10292C00D9F6D9F6D9F6D8F6B8F6B8F6B8F6B8F6A8
:10293C00B7F6B8F6B7F6B7F614F635F614F614F68D
:10294C0014F614F613F614F6F3F5F3F5F2F5F2F5B6
:10295C00F2F5F2F5F2F5F2F5F3F5F2F5F3F5F3F530
:10296C00F3F5F3F5F3F5F3F5F3F5F3F5F3F5F3F51B
:10297C00F3F5F3F5F2F5F3F5F3F5F3F5F2F5F2F50E
:10298C00D2F5F2F5D2F5D2F5F3F5D3F5F3F5F3F57F
:10299C00F3F5F3F513F6F3F575F675F696F695F67D
:1029AC00D7F6B6F6D8FED7FEF8FED8FEF9F6D9FE65
:1029BC00F9F6D9F6F9F6DAF6D8F6D9F6D8F6D8F655
:1029CC00D8F6D8F6D8F6D8F6F3F5F3F5F3F5F3F523
:1029DC00F3EDF3F514EEF3ED75F655F697F696F672
:1029EC00F8FEB7F619FFF8FED8FED8FED8FED8FED2
:1029FC00D8FED8FED8FED8FEF8FEF8FEF9F6F9F6A9
:102A0C00F9F6F9F6F9F6F9F6D9F6D9F6D9F6D9F6C2
:102A1C00D9F6D9F6D9F6D9F6D9F6D9F6D9F6D9F632
:102A2C00D9F6D9F6D9F6D9F6D9F6D9F6D9F6D9F622
:102A3C00D9F6D9F6D9F6D9F6D9F6D9F6D9F6D9F612
:102A4C00D9F6D9F6D9F6D9F6D9F6D9F6D9F6D9F602
:102A5C00D9F6D9F6F9F6D9F6F9F6F9F6F8F6F9F653
:102A6C00F8F6F8F6F8FEF8F676FE96FE55F675FED4
:102A7C0014F634F6F3EDF3F5F3F5F3F5F3F5F3F5AE
:102A8C00F2F5F2F5F2F5F2F5F3F5F2F5F3F5F3F5FF
:102A9C00F3F5F3F5F3F5F3F5F3F5F3F5F3F5F3F5EA
:102AAC00F3F5F3F5F2F5F3F5F2F5F2F5F2F5F2F5DF
:102ABC00F2F5F2F5F2F5F2F5F3F5F2F5F3F5D3F5EF
:102ACC00F3F5D3F5F3F5D3F534EE34EE75F654EEA9
:102ADC0096F675F6B7F696F6D8FED8FED9F6D8FE69
:102AEC00B9F6B9F6B8F6B9F6D8F6D9F6F8F6D8F6C6
:102AFC00F9FEF8F6F9FEF9FEF2F5F2F5F3F5F3F559
:102B0C00F3F5F3F5F3EDF3ED55F634F696F675F6BD
:102B1C00B7FE97F6D8FED8FED8FED8FED8FED8FE63
:102B2C00D8FED8FED8FED8FEF8FED8FEF9F6F9F697
:102B3C00F9F6F9F6F9F6F9F6D9F6D9F6D9F6D9F691
:102B4C00D9F6D9F6D9F6D9F6D9F6D9F6D9F6D9F601
:102B5C00D9F6D9F6D9F6D9F6D9F6D9F6D9F6D9F6F1
:102B6C00D9F6D9F6D9F6D9F6D9F6D9F6D9F6D9F6E1
:102B7C00D9F6D9F6D9F6D9F6D9F6D9F6D9F6D9F6D1
:102B8C00D9F6D9F6D9F6D9F6F9F6F9F6F9F6F9F641
:102B9C00F9F6F9F6F8F6F9F696FEB7FE76F676FE45
:102BAC0034F655F614EE14F613F6F3F5F3F5F3F5D7
:102BBC00F2F5F3F5F2F5F2F5F3F5F3F5F3F5F3F5CC
:102BCC00F3F5F3F5F3F5F3F5F3F5F3F5F3F5F3F5B9
:102BDC00F3F5F3F5F3F5F3F5F2F5F2F5F2F5F2F5AD
:102BEC00F2F5F2F5F2F5F2F5F2F5F2F5D3F5D3F5DF
:102BFC00D3F5D3F5F3F5D3F533EE13EE34F634F613
:102C0C0075F655F696F696F6B8FEB7FED8F6B8FEFB
:102C1C00D9F6B9F6D9F6D9F6D8F6D9F6F8F6D8F633
:102C2C00F8F6F8F6F9FEF9FEF2F5F2F5F2F5F2F532
:102C3C00F3F5F3F5F3EDF3F534F614F655F634F647
:102C4C0096F676F6B7FE96FED7FED7FED8FED7FEE2
:102C5C00D8FED8FEF8FEF8FEF8FED8FEF9F6F9F626
:102C6C00F9F6F9F6F9F6F9F6D9F6D9F6D9F6D9F660
:102C7C00D9F6D9F6D9F6D9F6D9F6D9F6D9F6D9F6D0
:102C8C00D9F6D9F6D9F6D9F6D9F6D9F6D9F6D9F6C0
:102C9C00D9F6D9F6D9F6D9F6D9F6D9F6D9F6D9F6B0
:102CAC00D9F6D9F6D9F6D9F6D9F6D9F6D9F6D9F6A0
:102CBC00D9F6D9F6D9F6D9F6F9F6F9F6F9F6F9F610
:102CCC00F9F6F9F6F9F6F9F6B7FED8FE96F6B7FE70
:102CDC0075F676F655F655F613EE14EE13F613EE6E
:102CEC00F2F5F3F5F2F5F2F5F3F5F3F5F3F5F3F59B
:102CFC00F3F5F3F5F3F5F3F5F3F5F3F5F3F5F3F588
:102D0C00F3F5F3F5F3F5F3F5F2F5F2F5F2F5F2F57B
:102D1C00F2F5F2F5F2F5F2F5F2F5F2F5F2F5F2F56F
:102D2C00F2F5F2F5F2F5F2F5F3EDF3F514F613EE28
:102D3C0055F634F675F655F697FE97FEB8FEB7FEC7
:102D4C00D9FEB8FEF9FED9FED8F6D8F6D8F6D8F6E4
:102D5C00F8F6F8F6F8F6F8F6F2F5F2F5F2F5F2F513
:102D6C00F3F5F3F5F3F5F3F513F613F634F614F671
:102D7C0055F635F675F675F6B7FEB7FED7FEB7FE07
:102D8C00D8FED8FEF8FED8FEF8FED8FEF9F6D9FE2D
:102D9C00F9F6F9F6F9F6F9F6D9F6D9F6D9F6D9F62F
:102DAC00D9F6D9F6D9F6D9F6D9F6D9F6D9F6D9F69F
:102DBC00D9F6D9F6D9F6D9F6D9F6D9F6D9F6D9F68F
:102DCC00D9F6D9F6D9F6D9F6D9F6D9F6D9F6D9F67F
:102DDC00D9F6D9F6D9F6D9F6D9F6D9F6D9F6D9F66F
:102DEC00D9F6D9F6D9F6D9F6F9F6F9F6F9F6F9F6DF
:102DFC00F9F6F9F6F9F6F9F6D8FED8F6B7F6D8FEE4
:102E0C0096F6B7F676F696F634F634EE13F634F606
:102E1C0013F613F6F3F5F3F5F3F5F3F5F3F5F3F524
:102E2C00F3F5F3F5F3F5F3F5F3F5F3F5F3F5F3F556
:102E3C00F3F5F3F5F3F5F3F5F2F5D3F5F2F5D3F588
:102E4C00F2F5D3F5F2F5F2F5F2F5F2F5F2F5F2F55D
:102E5C00F2F5F2F5F2F5F2F5F2F5D2F5F3F5F3F54C
:102E6C0014F613F635F614F676F656F697F677F65C
:102E7C00D8FEB8FEF9FED9FED8F6D8F6D8F6D8F6B4
:102E8C00F8F6D8F6F8F6F8F6D3F5D3F5F3F5F3F53E
:102E9C00F3F5F3F5F3F5F3F5F3F5F3F513F6F3F5C5
:102EAC0034F613F634F634F696F696FEB7FE97FE25
:102EBC00D8FEB7FEF8FED8FEF8FED8FEF9F6D9FE1D
:102ECC00F9F6F9F6F9F6F9F6D9F6D9F6D9F6D9F6FE
:102EDC00D9F6D9F6D9F6D9F6D9F6D9F6D9F6D9F66E
:102EEC00D9F6D9F6D9F6D9F6D9F6D9F6D9F6D9F65E
:102EFC00D9F6D9F6D9F6D9F6D9F6D9F6D9F6D9F64E
:102F0C00D9F6D9F6D9F6D9F6F8F6F9F6F8F6F9F6BF
:102F1C00F9F6F9F6F9F6F9F6F9F6F9F6F9F6F9F62D
:102F2C00F9F6F9F6F9F6F9F6F8F6F9F6D8F6D8F660
:102F3C00B7F6D8F6B7FEB7FE55F675F634F655F675
:102F4C0013F634F6F3F513F6F3F5F3F5F3F5F3F5B1
:102F5C00F3F5F3F5F3F5F3F5F3F5F3F5F3F5F3F525
:102F6C00F3F5F3F5F3F5F3F5D3F5D3F5D3F5D3F595
:102F7C00D3F5D3F5F3F5F3F5F3F5F3F5F2F5F2F547
:102F8C00F2F5F2F5F2F5F2F5D2F5D2F5F3F5D3F55B
:102F9C00F3F5F3F514EEF4F535F635F676F656F65C
:102FAC00B8FE97FED8FED8FED8F6D8F6D8F6D8F6E6
:102FBC00D8F6D8F6F8F6D8F6D3F5D3F5F3F5F3F54D
:102FCC00F3F5F3F5F3F5F3F5F2F5F3F5F3F5F3F5B6
:102FDC0013F613F634F613F675F655F696F676F6F2
:102FEC00B7FE97FED8FED7FEF8FED8FEF9F6D9FE4E
:102FFC00F9F6F9F6F9F6F9F6D9F6D9F6D9F6D9F6CD
:10300C00D9F6D9F6D9F6D9F6D9F6D9F6D9F6D9F63C
:10301C00D9F6D9F6D9F6D9F6D9F6D9F6D9F6D9F62C
:10302C00D9F6D9F6D9F6D9F6D9F6D9F6D9F6D9F61C
:10303C00D9F6D9F6D9F6D9F6F8F6F8F6F8F6F8F690
:10304C00F8F6F8F6F9F6F9F6F9F6F9F6F9F6F9F6FE
:10305C00F9F6F9F6F9F6F9F6F9F6F9F6F8F6F9F6ED
:10306C00D8F6D8F6D7FED7F696F696F675F676F627
:10307C0034F654F613F634F6F3F5F3F5F3F5F3F5FD
:10308C00F3F5F3F5F3F5F3F5F3F5F3F5F3F5F3F5F4
:10309C00F3F5F3F5D3F5F3F5D3F5D3F5D3F5D3F584
:1030AC00D3F5D3F5F3F5F3F5F3F5F3F5F2F5F3F515
:1030BC00F2F5F2F5F2F5F2F5D3F5D3F5D3F5D3F548
:1030CC00F3F5D3F5F4F5F4F514F6F4F556F635F608
:1030DC0077FE56F6B7FE97FED8F6D8F6D8F6D8F6A1
:1030EC00D8F6D8F6D8F6D8F6F3F5F3F5F3F5F3F5FC
:1030FC00F3F5F3F5F2F5F2F5F2F5F2F513F6F3F567
:10310C0013F613F613F613F634EE14F656F655EED4
:10311C0096F676F6B7F6B7F6F8FED8FEF9F6D9FEBF
:10312C00F9F6F9F6F9F6F9F6D9F6D9F6D9F6D9F69B
:10313C00D9F6D9F6D9F6D9F6D9F6D9F6D9F6D9F60B
:10314C00D9F6D9F6D9F6D9F6D9F6D9F6D9F6D9F6FB
:10315C00D9F6D9F6D9F6D9F6D9F6D9F6D9F6D9F6EB
:10316C00D9F6D9F6D9F6D9F6F8F6F8F6F8F6F8F65F
:10317C00F8F6F8F6F8F6F8F6F8F6F8F6F9F6F9F6D1
:10318C00F9F6F9F6F9F6F9F6F9F6F9F6F9F6F9F6BB
:10319C00D8F6F8F6D8FED8F6D7FED7FE96FEB6FED1
:1031AC0055F675F634F654F6F3F5F3F5F3F5F3F549
:1031BC00F3F5F3F5F3F5F3F5F3F5F3F5F3F5F3F5C3
:1031CC00F3F5F3F5D3F5F3F5D3FDD3F5D3F5D3F54B
:1031DC00D3F5D3F5F3F5F3F5F3F5F3F5F3F5F3F5E3
:1031EC00F3EDF3F5F2F5F2EDD3FDF3FDD3FDD3FDE5
:1031FC00D3F5D3F5D4F5D4F5F4EDD4ED15EEF4ED1B
:10320C0056F635F676F656F6D8F6D8F6D8F6D8F64B
:10321C00D8F6D8F6D8F6D8F6F3F5F3F5F3F5F3F5CA
:10322C00F3F5F3F5F2F5F2F5F3F5F3F5F3F5F3F554
:10323C0013F6F3F513F613F614EEF3F534F634EE49
:10324C0076F655F697F696F6F8FED8FEF8F6F8FEF2
:10325C00F8F6F8F6F9F6F9F6F9F6F9F6F9F6F9F6EC
:10326C00D9F6D9F6D9F6D9F6D8F6D9F6D8F6D8F6DD
:10327C00D8F6D8F6D8F6D8F6D9F6D9F6D9F6D9F6CE
:10328C00D9F6D9F6D9F6D9F6D9F6D9F6D9F6D9F6BA
:10329C00D9F6D9F6D9F6D9F6F8F6F8F6F8F6F8F62E
:1032AC00F8F6F8F6F8F6F8F6F8F6F8F6F9F6F9F6A0
:1032BC00F9F6F9F6F9F6F9F6D9EED9F6F9F6F9F6D2
:1032CC00D8F6F8F6D8F6D8F6D8FEF8FEB7FED7FE44
:1032DC0075F696F655F675F6F3F5F3EDF3F5F3F59D
:1032EC00F3F5F3F5F3F5F3F5F3F5F3F5F2F5F2F594
:1032FC00F2F5F2F5F2F5F2F5D3F5D3F5F3F5D3F5E6
:10330C00F3F5D3F5F3F5F3F5F3F5F3F5F3F5F3F591
:10331C00F3F5F3F5F3F5F3F5D3FDF3FDD3FDF3FD81
:10332C00F3F5D3FDF3F5D3F5D3EDD3EDF4EDF3EDE8
:10333C0014F614F655F635F6D8FEB7FED8F6D8FEC8
:10334C00D8FED8FED8FED8FEF3F5F3F5F3F5F3F579
:10335C00F3F5F3F5F3F5F3F5F2F5F3F5F2F5F3F523
:10336C00F2F5F2F5F2F5F2F513F6F3F513F613F6B2
:10337C0014F614F634EE14EEB6FEB6FED7F6B7F627
:10338C00D7F6D7F6F8F6D7F6D9F6F9F6D9F6D9F680
:10339C00D8F6D8F6D8F6D8F6F8FEF8FEF8FEF8FE11
:1033AC00F8FEF8FEF8FED8FED9F6D8F6D9F6D9F61E
:1033BC00D9F6D9F6D9F6D9F6D9F6D9F6D9F6D9F689
:1033CC00D9F6D9F6D9F6D9F6D8F6D9F6D8F6D9F67B
:1033DC00D9F6D9F6D9F6D9F6D9F6D9F6D9F6D9F669
:1033EC00D9F6D9F6D9F6D9F6D9F6D9F6F9F6D9F639
:1033FC00D9F6F9F6D8F6D8F6D8F6D8F6D8FED8F627
:10340C00D8F6D8F6B7FED8F635F655F614F635F6E6
:10341C00F3ED14EED3F5F3EDF2F5F3F5F2FDF2F571
:10342C00F2FDF2FDF2FDF2FDF3F5F2F5F3F5F3F535
:10343C00F3F5F3F5F3F5F3F5F3F5F3F5F3F5F3F540
:10344C00D3F5D3F5D3F5D3F5D3F5D3F5D3F5D3F530
:10345C00F3F5D3F5F3F5F3F5F3F5F3F5F3F5F3F540
:10346C00F3F5F3F5F3F5F3F555F635F676F656F682
:10347C00B7FE97FED7FED7FEF3F5F3F5F3F5F3F5AC
:10348C00F3F5F3F5F3F5F3F5F3F5F3F5F3F5F3F5F0
:10349C00F3F5F3F5F2F5F3F5F2F5F3F513F613F6A0
:1034AC0013F613F614EE13F695F695FEB6F696F69D
:1034BC00D7F6B7F6D8F6D7F6F9F6F8F6F9F6F9F630
:1034CC00D8F6F8F6D8F6D8F6F8FEF8FEF8FEF8FEC0
:1034DC00D8FEF8FEF8FED8FED9F6D8F6D9F6D9F60D
:1034EC00D9F6D9F6D9F6D9F6D9F6D9F6D9F6D9F658
:1034FC00D9F6D9F6D9F6D9F6D9F6D9F6D9F6D9F648
:10350C00D9F6D9F6D9F6D9F6D9F6D9F6D9F6D9F637
:10351C00D9F6D9F6D9F6D9F6D9F6D9F6D9F6D9F627
:10352C00D9F6D9F6D9F6D9F6D9F6D9F6D8F6D8F619
:10353C00D8F6D8F6D8F6D8F676F676F635F656F6F8
:10354C0014EE34F6F3EDF3EDF2F5F3F5F2F5F2F5E6
:10355C00F2FDF2FDF2FDF2FDF2EDF2F5F3F5F3ED15
:10356C00F3F5F3F5F3F5F3F5F3F5F3F5D3F5D3F54F
:10357C00D3F5D3F5D3F5D3FDF3F5D3F5F3F5F3F597
:10358C00F3F5F3F5F3F5F3F5F3F5F3F5F3F5F3F5EF
:10359C00F3F5F3F5F3F5F3F535F614F655FE35F6CC
:1035AC0096FE76FEB7FEB7FEF3F5F3F5F3F5F3F5FD
:1035BC00F3F5F3F5F3F5F3F5F3F5F3F5F3F5F3F5BF
:1035CC00F3F5F3F5F2F5F3F5F2F5F3F513F6F3F590
:1035DC0013F613F614EE13F675F655F696F675F615
:1035EC00B7FEB6F6D7FED7FEF8F6F8F6F8F6F9F60B
:1035FC00F8F6F8F6F8F6F8F6F8F6F8F6F8FEF8F647
:10360C00F8FEF8FEF8FEF8FED9F6D8F6D9F6D9F69B
:10361C00D9F6D9F6D9F6D9F6D9F6D9F6D9F6D9F626
:10362C00D9F6D9F6D9F6D9F6D9F6D9F6D9F6D9F616
:10363C00D9F6D9F6D9F6D9F6D9F6D9F6D9F6D9F606
:10364C00D9F6D9F6D9F6D9F6D9F6D9F6D9F6D9F6F6
:10365C00D9F6D9F6D9F6D9F6D9F6D9F6D8F6D9F6E7
:10366C00D8F6D8F6D8F6D8F697FEB8FE76F697FECA
:10367C0035F655F614F614F6F3F5F3F5F2F5F2F516
:10368C00D2F5D2F5D2F5D2FDF2F5F2F5F2F5F2F56E
:10369C00F2F5F2F5F3F5F3F5F3F5F3F5D3F5D3F520
:1036AC00D3F5D3F5D3F5D3F5F3F5D3F5F3F5F3F56E
:1036BC00F3F5F3F5F3F5F3F5F3F5F3F5F3F5F3F5BE
:1036CC00F3F5F3F5F3F5F3F514F6F4F534F614F627
:1036DC0055FE55F676FE76FEF3F5F3F5F3F5F3F5B8
:1036EC00F3F5F3F5F3F5F3F5F3F5F3F5F3F5F3F58E
:1036FC00F3F5F3F5F2F5F3F5F2F5F2F5F3F5F3F581
:10370C0013F613F613F613F634F614EE55F634F6E8
:10371C0096FE76F6B7FEB7FED8F6D8F6F8F6F8F6BB
:10372C00F9FEF8F6F9FEF9FEF8F6F8F6F8F6F8F602
:10373C00F8F6F8F6F8F6F8F6D9F6D9F6D9F6D9F689
:10374C00D9F6D9F6D9F6D9F6D9F6D9F6D9F6D9F6F5
:10375C00D9F6D9F6D9F6D9F6D9F6D9F6D9F6D9F6E5
:10376C00D9F6D9F6D9F6D9F6D9F6D9F6D9F6D9F6D5
:10377C00D9F6D9F6D9F6D9F6D9F6D9F6D9F6D9F6C5
:10378C00D9F6D9F6D9F6D9F6D9F6F9F6D9F6D9F695
:10379C00D8F6D8F6D8F6D8F6D8FEF8FEB7FEB7FEAF
:1037AC0055F676F634F635F613F614F6F3F5F3F51E
:1037BC00D2F5F2F5D2F5D2F5F2F5F2F5F2F5F2F525
:1037CC00F2F5F2F5F3F5F3F5F3F5F3F5D3F5D3F5EF
:1037DC00D3F5D3F5D3F5D3F5F3F5F3F5F3F5F3F51D
:1037EC00F3F5F3F5F3F5F3F5F3F5F3F5F3F5F3F58D
:1037FC00F3F5F3F5F3F5F3F5F3F5F3F514F6F4F55A
:10380C0034F614F655F655F6F3F5F3F5F3F5F3F542
:10381C00F3F5F3F5F3F5F3F5F3F5F3F5F3F5F3F55C
:10382C00F3F5F3F5F2F5F3F5F2F5F2F5F3F5F2F550
:10383C0013F6F3F513F613F6F3EDF3ED34F614F685
:10384C0075FE55F696FE76FEB7F6B7FED8FED8F6A0
:10385C00F8FED8FEF9FEF9FEF9F6F9F6F9F6F9F6E6
:10386C00F9F6F9F6F9F6F9F6D9F6D9F6D9F6D9F654
:10387C00D9F6D9F6D9F6D9F6D9F6D9F6D9F6D9F6C4
:10388C00D9F6D9F6D9F6D9F6D9F6D9F6D9F6D9F6B4
:10389C00D9F6D9F6D9F6D9F6D9F6D9F6D9F6D9F6A4
:1038AC00D9F6D9F6D9F6D9F6D9F6D9F6D9F6D9F694
:1038BC00D9F6D9F6D9F6D9F6F9F6F9F6D9F6F9F624
:1038CC00D8F6D9F6D8F6D8F6F8FEF9FEB8FED8FE3A
:1038DC0096F697FE76F676F634F635F613F614F67B
:1038EC00F3EDF3F5F2F5F2F5F2F5F2F5F2F5F2F59A
:1038FC00F2F5F2F5F2F5F2F5F2F5F2F5F2F5F2F584
:10390C00F2F5D3F5D3F5D3F5F3F5F3F5F3F5F3F5CC
:10391C00F3F5F3F5F3F5F3F5F3F5F3F5F3F5F3F55B
:10392C00F3F5F3F5F3F5F3F5F3F5D3F5F3F5F3F56B
:10393C0014F6F4F534F614F6F3F5F3F5F3F5F3F5B4
:10394C00F3F5F3F5F3F5F3F5F3F5F3F5F3F5F3F52B
:10395C00F3F5F3F5F3F5F3F5F2F5F2F5F2F5F2F51F
:10396C00F3F5F3F513F6F3F5F3EDD3ED14F6F3F5F8
:10397C0035F614F655F635FE96F696F6B7F697F636
:10398C00D8FED7FEF9FED8FEF9F6F9F6F9F6F9F6F7
:10399C00F9F6F9F6F9F6F9F6D9F6D9F6D9F6D9F623
:1039AC00D9F6D9F6D9F6D9F6D9F6D9F6D9F6D9F693
:1039BC00D9F6D9F6D9F6D9F6D9F6D9F6D9F6D9F683
:1039CC00D9F6D9F6D9F6D9F6D9F6D9F6D9F6D9F673
:1039DC00D9F6D9F6D9F6D9F6D9F6D9F6D9F6D9F663
:1039EC00D9F6D9F6D9F6D9F6F9F6F9F6F9F6F9F6D3
:1039FC00D9F6D9F6D8F6D9F6F9FEF9FED8FED8FEE6
:103A0C00B7FEB8FE97FEB7FE55F655F634F635F60A
:103A1C0014EE14F6F3F5F3EDF2F5F3F5F2F5F2F529
:103A2C00F2F5F2F5F2F5F2F5F2F5F2F5F2F5F2F552
:103A3C00F2F5F2F5F2F5F2F5F3F5F3F5F3F5F3F53E
:103A4C00F3F5F3F5F3F5F3F5F3F5F3F5F3F5F3F52A
:103A5C00F3F5F3F5F3F5F3F5F3F5D3F5F3F5F3F53A
:103A6C00F3F5F3F513F613F6F3F5F3F5F3F5F3F5C8
:103A7C00F3F5F3F5F3F5F3F5F3F5F3F5F3F5F3F5FA
:103A8C00F3F5F3F5F3F5F3F5F2F5F2F5F2F5F2F5EE
:103A9C00F3F5F3F5F3F5F3F5D3F5D3F5F3F5D3F53A
:103AAC00F4F5F4F514F6F4F575F655F696F676F697
:103ABC00B7FEB7FED8FED8FEF9F6F8F6F9F6F9F629
:103ACC00FAF6F9F6F9F6FAF6D9F6D9F6D9F6D9F6F0
:103ADC00D9F6D9F6D9F6D9F6D9F6D9F6D9F6D9F662
:103AEC00D9F6D9F6D9F6D9F6D9F6D9F6D9F6D9F652
:103AFC00D9F6D9F6D9F6D9F6D9F6D9F6D9F6D9F642
:103B0C00D9F6D9F6D9F6D9F6D9F6D9F6D9F6D9F631
:103B1C00D9F6D9F6D9F6D9F6F9FEF9FEF9F6F9F691
:103B2C00D9F6F9F6D9F6D9F6D8F6D8F6D8FED8FEE5
:103B3C00D8FED8FED8FED8FE96F696F655F676F652
:103B4C0034F635F614EE14EED3F5F3F5D3F5D3F5D0
:103B5C00D3F5D3F5F2F5F2F5F2F5F2F5F2F5F2F55F
:103B6C00F2F5F2F5F2F5F2F5F3F5F3F5F3F5F3F50D
:103B7C00F3F5F3F5F3F5F3F5F3F5F3F5F3F5F3F5F9
:103B8C00F3F5F3F5F3F5F3F5F3F5F3F5F3F5D3F509
:103B9C00F3F5F3F5F3F5F3F5F3F5F3F5F3F5F3F5D9
:103BAC00F3F5F3F5F3F5F3F5F3F5F3F5F3F5F3F5C9
:103BBC00F3F5F3F5F3F5F3F5F2F5F2F5F2F5F2F5BD
:103BCC00F3F5F3F5F3F5F3F5D3F5D3F5D3F5D3F529
:103BDC00D3F5D3F5F3F5D3F555F635F676F655F66C
:103BEC00B7FE96F6D8FEB7FEF9F6D8FEF9F6F9F65A
:103BFC00FAF6F9F6FAF6FAF6D9F6D9F6D9F6D9F6BE
:103C0C00D9F6D9F6D9F6D9F6D9F6D9F6D9F6D9F630
:103C1C00D9F6D9F6D9F6D9F6D9F6D9F6D9F6D9F620
:103C2C00D9F6D9F6D9F6D9F6D9F6D9F6D9F6D9F610
:103C3C00D9F6D9F6D9F6D9F6D9F6D9F6D9F6D9F600
:103C4C00D9F6D9F6D9F6D9F6F9FEF9FEF9F6F9FE58
:103C5C00D9F6F9F6D9F6D9F6B8F6B8F6D8F6D8F604
:103C6C00D8FED8F6F8FED8FE97F6B7F676F696F6A6
:103C7C0035EE56F614EE35EEF3F5F3F5F3F5D3F524
:103C8C00F3F5D3F5F2F5D3F5F2F5F2F5F2F5F2F52D
:103C9C00F2F5F2F5F2F5F2F5F3F5F3F5F3F5F3F5DC
:103CAC00F3F5F3F5F3F5F3F5F3F5F3F5F3F5F3F5C8
:103CBC00F3F5F3F5F3F5F3F5F3F5F3F5F3F5F3F5B8
:103CCC00F3F5F3F5F3F5F3F5F3F5F3F5D3F5D3F5E8
:103CDC00D2F5D3F5D2F5D2F5F3F5F3F5F3F5F3F51B
:103CEC00F3F5F3F5F3F5F3F5F2F5F2F5F2F5F2F58C
:103CFC00F3F5F3F5F3F5F3F5D3F5D3F5D3F5D3F5F8
:103D0C00D3F5D3F5D3F5D3F514EEF3F534F634F649
:103D1C0076F655F697F696F6D8FED8FED9F6D9F67D
:103D2C00F9F6F9F6FAF6FAF6F9FEF9FEF9FEF9FEED
:103D3C00D8F6D9F6D8F6D8F6F9F6F9F6F9F6F9F682
:103D4C00F9F6F9F6F9F6F9F6D9F6D9F6D9F6D9F66F
:103D5C00D9F6D9F6D9F6D9F6D9F6D9F6D9F6D9F6DF
:103D6C00D9F6D9F6D9F6D9F6D9F6D9F6D9F6D9F6CF
:103D7C00D9F6D9F6D9F6D9F6D9F6D9F6D9F6D9F6BF
:103D8C00D9F6D9F6D9F6D9F6F9F6F9F6F9F6F9F62F
:103D9C00F8FEF9F6D8FEF8FED8FED8FEB7F6B8FE57
:103DAC0076F697F656F676F6F3F5F4F5F3F5F3F5B5
:103DBC00F3F5D3F5F3F5D3F5F2F5D3F5F3F5F2F519
:103DCC0013F6F3F513FE13FEF3F5F3F5F3F5F3F534
:103DDC00F3F5F3F5F3F5F3F5F3F5F3F5F3F5F3F597
:103DEC00F3F5F3F5F3F5F3F5D3F5D3F5D3F5D3F507
:103DFC00F2F5D2F5F2F5F2F5F3F5F3F5D3F5F3F5BB
:103E0C00D3F5D3F5D2F5D2F5F3F5F3F5F3F5F3F5E8
:103E1C00F3F5F3F5F3F5F3F5F2F5F2F5F2F5F2F55A
:103E2C00F3F5F3F5F3F5F3F5D3F5D3F5D3F5D3F5C6
:103E3C00D3FDD3FDD3F5D3FDF3F5F3F534F614F63A
:103E4C0055F635F676F676F6B8F6B7FED8F6B8F639
:103E5C00F9F6D9F6F9F6FAF6F9FEF9FEF9F6F9FEE5
:103E6C00D8F6D9F6D8F6D8F6F9F6F9F6F9F6F9F651
:103E7C00F9F6F9F6F9F6F9F6D9F6D9F6D9F6D9F63E
:103E8C00D9F6D9F6D9F6D9F6D9F6D9F6D9F6D9F6AE
:103E9C00D9F6D9F6D9F6D9F6D9F6D9F6D9F6D9F69E
:103EAC00D9F6D9F6D9F6D9F6D9F6D9F6D9F6D9F68E
:103EBC00D9F6D9F6F9F6D9F6F9F6F9F6F9F6F9F6DE
:103ECC00F9F6F9F6F8FEF8FED8FEF8FEB8F6D8FECC
:103EDC0097F6B7F676F697F614F635F614F614F65A
:103EEC00F3F5F3F5F3F5F3F5F3F5F3F5F2F5F3F587
:103EFC00F2F5F3F5F3F5F3F5F3F5F3F5F3F5F3F577
:103F0C00F3F5F3F5F3F5F3F5F3F5F3F5F3F5F3F565
:103F1C00F3F5F3F5F3F5F3F5D3F5D3F5D3F5D3F5D5
:103F2C00D2F5D3F5F2F5F2F5F3F5F3F5F3F5F3F588
:103F3C00D3F5D3F5D2F5D3F5F3F5F3F5F3F5F3F5B6
:103F4C00F3F5F3F5F3F5F3F5F3F5F3F5F3F5F3F525
:103F5C00F3F5F3F5F3F5F3F5D3F5D3F5D3F5D3F595
:103F6C00D3F5D3F5D3F5D3F5F3F5D3F513F6F3F584
:103F7C0034F614F655F635F676F676F6B7F697F679
:103F8C00D9F6B8F6F9FEF9FEF9F6F9F6D9F6F9F61E
:103F9C00D8F6D9F6D8F6D8F6F9F6F9F6F9F6F9F620
:103FAC00F9F6F9F6F9F6F9F6D9F6D9F6D9F6D9F60D
:103FBC00D9F6D9F6D9F6D9F6D9F6D9F6D9F6D9F67D
:103FCC00D9F6D9F6D9F6D9F6D9F6D9F6D9F6D9F66D
:103FDC00D9F6D9F6D9F6D9F6D9F6D9F6D9F6D9F65D
:103FEC00D9F6D9F6F9F6D9F6F9F6F9F6F9F6F9F6AD
:103FFC00F9F6F9F6F8F6F8F6F8FEF9FED8FEF8FE42
:10400C00B7F6D8F6B7F6B7F655FE56F635F635F6DA
:10401C00F4F514F6D3EDF3EDD3F5F3EDF3F5D3F5A9
:10402C00D2F5D3F5D3F5D3F5F3F5F3F5F3F5F3F5C5
:10403C00F3F5F3F5F3F5F3F5F3F5F3F5F3F5F3F534
:10404C00F3F5F3F5F3F5F3F5D3F5D3F5D3F5D3F5A4
:10405C00D3F5D3F5D2F5D2F5F3F5F3F5F3F5F3F596
:10406C00D3F5F3F5D3F5D3F5F3F5F3F5F3F5F3F564
:10407C00F3F5F3F5F3F5F3F5F3F5F3F5F3F5F3F5F4
:10408C00F3F5F3F5F3F5F3F5D3F5D3F5D3F5D3F564
:10409C00D3F5D3F5F2F5D3F5D2F5D2F5F3F5D2F598
:1040AC0014F6F3F514EE14F655F635F676F656F6D8
:1040BC00B8F697F6D8FED8FED8F6D8F6D8F6D8F6D5
:1040CC00D8F6D8F6D8F6D8F6F9F6F9F6F9F6F9F6F0
:1040DC00F9F6F9F6F9F6F9F6D9F6D9F6D9F6D9F6DC
:1040EC00D9F6D9F6D9F6D9F6D9F6D9F6D9F6D9F64C
:1040FC00D9F6D9F6D9F6D9F6D9F6D9F6D9F6D9F63C
:10410C00D9F6D9F6D9F6D9F6D9F6D9F6D9F6D9F62B
:10411C00D9F6D9F6D9F6D9F6F9F6F9F6F9F6F9F69B
:10412C00F9F6F9F6F8F6F8F6F9FEF9FEF8FEF9FEEE
:10413C00D8FED8FED8FED8F697FE97FE56F676F641
:10414C0014F635F6F4ED14EEF3EDF3EDD3F5F3F5DB
:10415C00D2F5D3F5D2F5D2F5F3F5F3F5F3F5F3F596
:10416C00F3F5F3F5F3F5F3F5F3F5F3F5F3F5F3F503
:10417C00F3F5F3F5F3F5F3F5D3F5D3F5D3F5D3F573
:10418C00D3F5D3F5D2F5D3F5F3F5F3F5F3F5F3F564
:10419C00F3F5F3F5D3F5D3F5F3F5F3F5F3F5F3F513
:1041AC00F3F5F3F5F3F5F3F5F3F5F3F5F3F5F3F5C3
:1041BC00F3F5F3F5F2F5F2F5F2F5F2F5F2F5F2F5B9
:1041CC00F2F5F2F5F2F5F2F5D2F5D2F5D2F5D2F52B
:1041DC00F3F5F3F513EEF3F514EE14EE56F635EEA7
:1041EC0097F676F6B7FE97FED8F6B8F6D8F6D8F668
:1041FC00D8F6D8F6D9F6D9F6F9F6F9F6F9F6F9F6BD
:10420C00F9F6F9F6F9F6F9F6D9F6D9F6D9F6D9F6AA
:10421C00D9F6D9F6D9F6D9F6D9F6D9F6D9F6D9F61A
:10422C00D9F6D9F6D9F6D9F6D9F6D9F6D9F6D9F60A
:10423C00D9F6D9F6D9F6D9F6D9F6D9F6D9F6D9F6FA
:10424C00D9F6D9F6D9F6D9F6F9F6F9F6F8F6F9F66B
:10425C00F8F6F8F6F8F6F8F6F9FEF9FEF8FEF9FEBF
:10426C00F8FEF8FEF8FEF8FEB7FED8FE97F6B7FE9D
:10427C0035F676F615F635F6F4F514EEF3F5F3F5AA
:10428C00D3F5D3F5B2F5B2F5F3F5F3F5F3F5F3F5A4
:10429C00F3F5F3F5F3F5F3F5F3F5F3F5F3F5F3F5D2
:1042AC00F3F5F3F5F3F5F3F5D3F5D3F5D3F5D3F542
:1042BC00D3F5D3F5D3F5D3F5F3F5F3F5F3F5F3F532
:1042CC00F3F5F3F5F3F5F3F5F3F5F3F5F3F5F3F5A2
:1042DC00F3F5F3F5F3F5F3F5F3F5F3F5F3F5F3F592
:1042EC00F3F5F3F5F2F5F2F5F2F5F2F5F2F5F2F588
:1042FC00F2F5F2F5F2F5F2F5F2F5F2F5D2F5D2F5BA
:10430C00F3F5F3F5F3F5F3F514EEF3F535F614F6E2
:10431C0055F655F676F676F6B8F6B8F6D8F6B8F64B
:10432C00D8F6D8F6F9F6D9F6F9F6F9F6F9F6F9F66B
:10433C00F9F6F9F6F9F6F9F6D9F6D9F6D9F6D9F679
:10434C00D9F6D9F6D9F6D9F6D9F6D9F6D9F6D9F6E9
:10435C00D9F6D9F6D9F6D9F6D9F6D9F6D9F6D9F6D9
:10436C00D9F6D9F6D9F6D9F6D9F6D9F6D9F6D9F6C9
:10437C00D9F6D9F6D9F6D9F6F8F6F9F6F8F6F8F63C
:10438C00F8F6F8F6F8F6F8F6F8F6F8F6F8FEF8FEA1
:10439C00F8FEF8FEF8FEF8FED8F6D8F6B7F6B8F642
:1043AC0076F697F656F676F614F635F6F4F514F628
:1043BC00D3F5F3F5D3F5D3F5F3F5D3F5F3F5F3F531
:1043CC00F3F5F3F5F3F5F3F5F3F5F3F5F3F5F3F5A1
:1043DC00F3F5F3F5F3F5F3F5D3F5D3F5D3F5D3F511
:1043EC00D3F5D3F5D3F5D3F5F3F5F3F5F3F5F3F501
:1043FC00F3F5F3F5F3F5F3F5F3F5F3F5F3F5F3F571
:10440C00F3F5F3F5F3F5F3F5D3F5D3F5D3F5D3F5E0
:10441C00F3F5F3F5F2F5F2F5F2F5F2F5F2F5F2F556
:10442C00F2F5F2F5F2F5F2F5F2F5F2F5F2F5F2F548
:10443C00F3F5F2F5F3F5F3F5F3F5F3F514F614F6ED
:10444C0034F614F655F635F6B8EE97F6B8F6B8F627
:10445C00D8F6D8F6F9F6F9F6F9F6F9F6F9F6F9F61A
:10446C00F9F6F9F6F9F6F9F6D9F6D9F6D9F6D9F648
:10447C00D9F6D9F6D9F6D9F6D9F6D9F6D9F6D9F6B8
:10448C00D9F6D9F6D9F6D9F6D9F6D9F6D9F6D9F6A8
:10449C00D9F6D9F6D9F6D9F6D9F6D9F6D9F6D9F698
:1044AC00D9F6D9F6D9F6D9F6F8F6F8F6F8F6F8F60C
:1044BC00F8F6F8F6F8F6F8F6D8F6D8F6D8F6D8F600
:1044CC00D8F6D8F6F8F6F8FEF8F6D8F6D8F6D8F608
:1044DC00B7F6B8F697FE97FE35F656F614FE35FE8F
:1044EC00D3F5F4F5D3F5D3F5F3F5D3F5F3F5F3F5FF
:1044FC00F3F5F3F5F3F5F3F5F3F5F3F5F3F5F3F570
:10450C00F3F5F3F5F3F5F3F5F3F5F3F5F3F5F3F55F
:10451C00D3F5D3F5F3F5F3F513F613F6F3F5F3F54D
:10452C00F3F5F3F5F3F5F3F5D3F5D3F5F2F5D3F5A0
:10453C00F2F5F2F5F2F5F2F5D3F5D3F5D3F5D3F5B3
:10454C00F3F5D3F5F2F5F3F5F2F5F3F5F2F5F2F543
:10455C00F2F5F2F5F2F5F2F5F3FDF3F5F3FDF3FDFB
:10456C00F3F5F3F5F3F5F3F5F3F5F3F5F3F5F3F5FF
:10457C0014F614F614F614F697F696F6B8F697F6B3
:10458C00D8FEB8F6F9FED8FEF8FEF8FEF9F6F9F604
:10459C00F9F6F9F6F9F6F9F6D9F6D9F6D9F6D9F617
:1045AC00D9F6D9F6D9F6D9F6D9F6D9F6D9F6D9F687
:1045BC00D9F6D9F6D9F6D9F6D9F6D9F6D9F6D9F677
:1045CC00D9F6D9F6D9F6D9F6D9F6D9F6D9F6D9F667
:1045DC00D8F6D9F6D9F6D8F6D9FED9FEF8F6F8FE03
:1045EC00F8F6F8F618F7F8F6D8EED7EED9F6D9F6BD
:1045FC00D9FED9F6D9FED9FED9F6D9F6D8F6D9F620
:10460C00D8FED8F6B8FEB8FE56F657F635F656F67E
:10461C00F4F514F6D3F5F4F5F3F5F3F5F3F5F3F54A
:10462C00F3F5F3F5F3F5F3F5F3F5F3F5F3F5F3F53E
:10463C00F3F5F3F5F3F5F3F5F3F5F3F5F3F5F3F52E
:10464C00D3F5D3F5F3F5F3F575F696F655F675F651
:10465C00F4F514F6D3F5D3F5F3FDF3FDF2FDF3FD0C
:10466C00F2F5F2FDF3FDF2F5D2F5D2F5D3F5D3F573
:10467C00D3F5D3F5F3F5D3F5F3F5F3F5F3F5F3F54E
:10468C00F3F5F3F5F3F5F3F5F2F5F3F5F3F5F3F5DF
:10469C00F3F5F3F5F3F5F3F5F3F5F3F5F3F5F3F5CE
:1046AC00F3F5F3F5F3F5F3F535F634F676F655F652
:1046BC0097FE76F6B8FEB7FED8F6D8FED8F6D8F642
:1046CC00D9F6D9F6D9F6D9F6D8F6D9F6F8F6D8F649
:1046DC00F9FEF8F6F9FEF9FED8F6D8F6F9F6F9F681
:1046EC00F9F6F9F6F9F6F9F6D9F6D9F6D9F6D9F6C6
:1046FC00D9F6D9F6D9F6D9F6F9F6D9F6B8F697EE81
:10470C0097F6B8F6D8F65AFFFAFE99F6B5EED6F645
:10471C0019F719FF17EFF7EE38EF37EF3ADE5DF7C1
:10472C00FCFE1EFFBAFE58FEDCFEBCFE19FFB9FEF5
:10473C00F9FED8FE9AF6BAFE99F69AF675F697F641
:10474C0034F655F614F615F6F3F5D3F5F3F5F3F553
:10475C0013FEF3F513FE13FEF3F5F3F5F3F5F3F592
:10476C00D3F5F3F5D3F5D3F5D3F5F3F5F3F5D3F59D
:10477C00F3F5F3F5F3F5F3F596F6B6F655F676F69E
:10478C0014F635F6F3FDF4F5F3FDD3FDF2FDF3FD70
:10479C00F2F5F2FDF2F5F2F5D2F5D2F5D3F5D3F54B
:1047AC00D3F5D3F5D3F5D3F5F3F5F3F5D3F5D3F57D
:1047BC00F3F5D3F5F3F5F3F5F3F5F3F5F3F5F3F5CD
:1047CC00F3F5F3F5F3F5F3F5F3F5F3F5F3F5F3F59D
:1047DC00F3F5F3F5F3F5F3F514F613F654F634F6A6
:1047EC0076FE55FEB7FE97FEB8FEB7FED8F6D8F6A5
:1047FC00D9F6D9F6F9F6D9F6D8F6D9F6F8F6D8F6F8
:10480C00F8F6F8F6F9FEF9FED8F6D8F6F9F6F9F658
:10481C00F9F6F9F6F9F6F9F6D9F6D9F6D9F6D9F694
:10482C00D9F6D9F6D9F6D9F63AFF77EEB8F6D8F626
:10483C00D8FE19FFF9FE76EED9FEDAFED7FED7FECA
:10484C0098EED9FE38F7B7EE9AFFF6EE71A438D68B
:10485C00AD9B2862FAFE16EE7BF67CFEF8FE98F60F
:10486C00F9FE18FFDBF699EEB9F6BAF6B6F6B7F61E
:10487C0075F695F634F655EEF3F513F6F3F5F3F508
:10488C00F3F5F3F5F3F5F3F5F3F5F3F5F3F5F3F5DC
:10489C00F3F5F3F5D3F5D3F5F3F5F3F5F3F5F3F50C
:1048AC00F3F5F3F5F3F5F3F5B7FED7F696FEB7F699
:1048BC0055FE75FE34FE35FEF3F5F3F5F2F5F3F522
:1048CC00F2F5F2F5D2F5F2F5D2F5F2F5D2F5D2F524
:1048DC00D2F5D2F5D3F5D3F5D3F5D3F5F3F5D3F56E
:1048EC00F3F5F3F5F3F5F3F5F3F5F3F5F3F5F3F57C
:1048FC00F3F5F3F5F3F5F3F5F3F5F3F5F3F5F3F56C
:10490C00F3F5F3F5F3F5F3F513F6F3F534F614F6D6
:10491C0055F635F676F676F6B7FEB7FEB8FEB8FE67
:10492C00D9FED8FEF9FED9FED8F6D8F6D8F6D8F6C8
:10493C00F9F6F9F6F9F6F9F6F9F6F9F6F9F6F9F6F3
:10494C00F9F6F9F6D9F6F9F6D9F6D9F6D9F6D9F683
:10495C00D9F6D9F6D9F6D9F6D9F698EE19FFF9FEAB
:10496C003AFFD8F639FFD8FEF8FED7F61AFF19FF32
:10497C00BAFEBAFE98FEB9FE12C51AFF277B0010CC
:10498C00E26A279431C5802878EE3BFFF6F6D7F61D
:10499C00F7F6F6F6F9F639FFF7F6F8F6D6F6D7F697
:1049AC0095F6B6F674F674F614FE34F614F614F6A0
:1049BC00F3F5F3F5D3F5D3F5F3F5F3F5F3F5F3F5EB
:1049CC00F2F5F2F5D3F5F2F5F3F5F3F5F3F5F3F5BE
:1049DC00F3F5F3F5F3F5F3F5D7FED7FEB7FED7FEF7
:1049EC0076FE96FE55FE76FEF4F514F6F3F5F4F528
:1049FC00F3F5F3F5D2F5F2F5D2F5F2F5D2F5D2F5F1
:104A0C00D2F5D2F5D3F5D3F5D3F5D3F5D3F5D3F55C
:104A1C00F3F5D3F5F3F5D3F5F3F5F3F5F3F5F3F58A
:104A2C00F3F5F3F5F3F5F3F5F3F5F3F5F3F5F3F53A
:104A3C00F3F5F3F5F3F5F3F5F3EDF2F513F6F3F512
:104A4C0034F614F655F635F697FE96FEB8FEB7FE1C
:104A5C00D8FEB8FEF9FED8FED8F6D8F6D8F6D8F6B9
:104A6C00F9F6F9F6F9F6F9F6F9F6F9F6F9F6F9F6C2
:104A7C00F9F6F9F6F9F6F9F6D9F6D9F6D9F6D9F632
:104A8C00D9F6D9F6D9F6D9F6B8F6F9FEF9FEF9F653
:104A9C003AFFB8F656E63AFF76E6F8F6B8FE76EE4A
:104AAC00DAFEB9FE58FEDAFE00207AFE067B002004
:104ABC006DDE0CCE60208AA45AFFF5D50BB5F0CD77
:104ACC00F6EED3E6B7EEB7E617F717F7D7FE16F7FD
:104ADC00B7FEB8FE95FEB6FE55FE75FE34F635FEF5
:104AEC00F3F514F6D3EDD3EDF3F5F3F5F3F5F3F5A8
:104AFC00F2F5F3F5F2F5F2F5F3F5F3F5F3F5F3F56D
:104B0C00F3F5F3F5F3F5F3F5F8FEF8FED7FED8FE62
:104B1C00B7FEB7FE96FE97FE34F635F614F614F68D
:104B2C00F3F513F6F3EDF3EDD2F5D3F5D2F5D2F5AB
:104B3C00D2F5D2F5D2F5D2F5D2F5D2F5D2F5D2F531
:104B4C00F2F5D3F5D3F5D3F5F3F5F3F5F3F5F3F57A
:104B5C00F3F5F3F5F3F5F3F5F3F5F3F5F3F5F3F509
:104B6C00F3F5F3F5F3F5F3F5D2F5D2F5F3F5F3F53B
:104B7C0014F6F3F514F614F676F655F697F676F673
:104B8C00B8FE97FED8FED8FED8F6D8F6D8F6D8F6EA
:104B9C00D8F6D8F6F9F6F9F6F9F6F9F6F9F6F9F6D3
:104BAC00F9F6F9F6F9F6F9F6D9F6D9F6D9F6D9F601
:104BBC00D9F6D9F6D9F6D9F6F9FE19FFD8F677EE6B
:104BCC0077EE5AFF1AF7B8EEDAE6F7CD16F799FF3B
:104BDC0096F654E61BFF3AFFC959F19B275ABCF6CF
:104BEC0006940010A36A0FDEE66ACC8BA031A018E5
:104BFC002A8C80313BF7B8E636F738F7F8FE16F713
:104C0C009AFEBAFEB7FEB8FE96FE97FE55F676FEF5
:104C1C0014F635F6F3EDF4EDF3F514F6F3F5F3F5D0
:104C2C00F3F5F3F5F2F5F2F5D3F5D3F5D3F5D3F5BA
:104C3C00D3F5D3F5D3F5D3F5F8FEF8FED8FEF8FE90
:104C4C00D7FED8FEB7FEB7FE56FE76FE35F655FEFD
:104C5C0014F634F6F3ED14EEF2F5F3F5F2F5D2F5B5
:104C6C00D2F5D2F5D2F5D2F5D2F5D2F5D2F5D2F500
:104C7C00D2F5D2F5F2F5D2F5F3F5D3F5F3F5F3F56C
:104C8C00F3F5F3F5F3F5F3F5F3F5F3F5F3F5F3F5D8
:104C9C00F3F5F3F5F3F5F3F5D2F5D2F5F3F5D2F52B
:104CAC00F3F5F3F514F6F3F535F634F656F655F64A
:104CBC0097FE76F6B8FEB7FED8F6D8F6D8F6D8F644
:104CCC00D8F6D8F6F9F6D9F6F9F6D9F6F9F6F9F6E2
:104CDC00F9F6F9F6F9F6F9F6D9F6F9F6D9F6D9F6B0
:104CEC00D9F6D9F6D9F6D9F677E619FFD9F619FF20
:104CFC009CFF57E60010B4CDC020401072DE256B2F
:104D0C0018F7B9FF5CFFD8EE6F7BCF8BD4AC3FF7B5
:104D1C008041201081490010403140188DCECCB517
:104D2C00603112E71BF7CD8317F718F7D9F618F790
:104D3C00BCFEBCFEB8FEBAFEB7FEB8FE76F697FE19
:104D4C0035F656F614F635F614F614F6F3F513F6A6
:104D5C00F3F5F3F5F3F5F3F5D3F5D3F5D3F5D3F587
:104D6C00D3F5D3F5D3F5D3F5F8F6F8F6D8F6F8F67F
:104D7C00D8FED8FED8FED8FE97FE97FE56F676FEE5
:104D8C0035EE55F614EE35EEF3F5F3F5F3F5D3F504
:104D9C00D3F5D3F5F2F5F2F5F2F5F2F5D2F5D2F54D
:104DAC00D2F5D2F5F2F5D2F5F3F5D3F5F3F5F3F53B
:104DBC00F3F5F3F5F3F5F3F5F3F5F3F5F3F5F3F5A7
:104DCC00F3F5F3F5F3F5F3F5F2F5F2F5F3F5F2F59A
:104DDC00F3F5F3F5F3F5F3F5F3F5F3F535F614F622
:104DEC0076FE55F697FE76FED8F6D8FED8F6D8F6AF
:104DFC00D8F6D8F6F8F6D8F6F9F6F9F6F9F6F9F693
:104E0C00F9F6F9F6F9F6F9F6D9F6F9F6D9F6D9F67E
:104E1C00D9F6D9F6D8F6D8F63AFFD8F698EE77EE5A
:104E2C0098EE7BFF0B9C886A87C58EE68030A06A63
:104E3C0070ACA3596F9C53C5C639274ADCDEFFFF03
:104E4C009DF7AE73A420DCE62229C220A2392029CA
:104E5C004131A33919F7E028F9F6F9F6BBF6DBF680
:104E6C00BBFEBCFED9FEBAFED8FED9FEB7FED8FEFC
:104E7C0076F697F655F656F614F614F6F3F514F690
:104E8C00F3F5F3F5F3F5F3F5F3F5F3F5D3F5D3F516
:104E9C00D3F5D3F5D3F5D3F5F8F6F8F6F8F6D8F64E
:104EAC00D8FED8F6D8FED8FEB7FEB8FE77F697FE39
:104EBC0056EE76F635F635EEF3F5F3F5F3F5F3F548
:104ECC00F3F5F3F5F2F5F3F5F2F5F2F5D2F5F2F5BB
:104EDC00D2F5D2F5F2F5D2F5F3F5F3F5F3F5F3F5EA
:104EEC00F3F5F3F5F3F5F3F5F3F5F3F5F3F5F3F576
:104EFC00F3F5F3F5F2F5F3F5F2FDF3FDF2F5F2FD52
:104F0C00F3F5F3F5F3F5F3F5F3EDD3ED14F6F3ED6B
:104F1C0055FE35F676FE76FED7FEB7FED7F6D7FEF3
:104F2C00D8F6D8FED8F6D8F6F9F6D8F6F9F6D9F6BA
:104F3C00F9F6F9F6F9F6F9F6D9F6F9F6D9F6D9F64D
:104F4C00D8F6D9F6D8F6D8F6B8F61AFFD9EE98EE08
:104F5C001AF778E6277BE5514BE6ECD56CD54CEE91
:104F6C008259A9A3025A0041C020C88B9FF7919C7B
:104F7C009FFFFFFF231016AD7AD6A7410008729C45
:104F8C00D6CDCE8BF5CDE128DAF6DAEEBBF6DBF634
:104F9C00BAFEBBF6D9FED9FEF9FEF9FED8FED9FE53
:104FAC0097F6B8FE76FE97F614F615EE14F614F690
:104FBC0013F6F3F5F3F5F3F5F3F5F3F5D3F5F3F5A4
:104FCC00D3F5D3F5D3F5D3F5F9F6F9F6F8F6F9F6FA
:104FDC00F8F6F8F6F8FEF8FED8FEF8FEB8FED8FEA5
:104FEC0097F6B7FE76FE97F614F614F613F614F64B
:104FFC00F3F5F3F5F3F5F3F5F2F5D3F5F3F5F2F587
:10500C00F3FDF3FD13FEF3FDF3F5F3F5F3F5F3F513
:10501C00F3F5F3F5F3F5F3F5F3F5F3F5F3F5F3F544
:10502C00F3F5F3F5F2F5F3F5F2F5D2F5F2F5D2F579
:10503C00F2F5F2F5F3F5F3F5F3F5F3F5F4F5F3F525
:10504C0014F614F614F614F676F676F6B7F696F61B
:10505C00F8FED7FE19FF19FFF8F6D8F6F9F6F9F6AF
:10506C00F9F6F9F6F9F6F9F6F9F6F9F6D9F6D9F6FC
:10507C00D8F6D9F6D8F6D8FED8F6F8FEB8EEF9F68A
:10508C003BF7F9EE6541C64925620010ECE5AABC78
:10509C00EDF54FFECAEDAAED6BD54CF687514030BD
:1050AC0066490E838D8B80281FFF652015B55FFF29
:1050BC00BAEE7EFF59E600083BFF59E63AFFB8F618
:1050CC00B7F619FF59FFF8FEF9F6F9F6D9FED9FE35
:1050DC00D8FED8FED8FED8FE76FE76F634F655F617
:1050EC00F3F514F6D3EDF3F5F3F5F3F5F3F5F3F57A
:1050FC00F3F5F3F5F3F5F3F5F9F6F9F6F9F6F9F648
:10510C00F8F6F8F6F8F6F8F6F8FEF8F6D8FED8FE4B
:10511C0097F6B8F697F697F634F635F614F634F6A5
:10512C0013F614F6F3F5F3F5F3F5F3F5F2F5F3F5F1
:10513C00F2F5F3F5F3F5F3FDF3F5F3F5F3F5F3F51C
:10514C00F3F5F3F5F3F5F3F5F3F5F3F5F3F5F3F513
:10515C00F3F5F3F5F2F5F3F5D2FDD2F5D2F5D2F580
:10516C00F2F5F2F5F3F5F3F5F3F5F3F5F3F5F3F5F5
:10517C0014F6F4F514F614F655F655F696F676F68E
:10518C00D7FEB7FEF8FED8FEF8F6D8F6F9F6D8F644
:10519C00F9F6F9F6F9F6F9F6F9F6F9F6D9F6D9F6CB
:1051AC00D8F6D9F6D8FED8FE97EE5AFF5BFFD8F6A4
:1051BC00FAEE98E63DF70008329CDEEEA03020397E
:1051CC00C9CCC382CAF5EBF5ECF5A9ED2DBC2EDDEF
:1051DC00ABAB4AA351DDEED495ACA4389FFF9FFF37
:1051EC008C8B1CFFF5DD2239DAFE9DFF97EED9FE84
:1051FC0037FFD6F659FF96EEF9F6F9F6F9F6F9F609
:10520C00D8FED9FED8FED8FE76F697F655F676F689
:10521C0014F634F6F3F514F6F3F5F3F5F3F5F3F5BC
:10522C00F3F5F3F5F3F5F3F5F8F6F8F6F8F6F8F61A
:10523C00F8F6F8F6F8F6F8F6F8F6F8F6D8F6D8F632
:10524C00B8F6B8F697F698F676FE76F655F655F665
:10525C0014F634F6F3F514F6F3EDF3EDF3F5F3F58C
:10526C00F2F5F3F5F3F5D3F5F3F5F3F5F3F5F3F513
:10527C00F3F5F3F5F3F5F3F5F3F5F3F5F3F5F3F5E2
:10528C00F3F5F3F5D3F5F3F5D2F5D2F5D2F5D2F576
:10529C00F2F5F2F5F3F5D3F5F3F5F3F5F3F5F3F5E4
:1052AC0014F6F3F514F6F4F534F634F655F655F623
:1052BC0096F676F6B7FEB7FED8FED8FEF8FED8FE08
:1052CC00F9F6F8F6F9F6F9F6F9F6F9F6D9F6D9F69B
:1052DC00D8FED9F6D8FED8FEF9F619FF3BFFB8F682
:1052EC0074BD1AF7DEFF0008FFEF9EE7E3201CDF1A
:1052FC00A1306D832693C2598FEDEDD44AEDEFFDAD
:10530C00A8FDE9FDD0FD8CFD00186BBCD5C4F1A344
:10531C00A030476A202048A4FBFE298B5CFF18E6CE
:10532C00B5EEB5EED8F6F8FEF9F6F9F6F9F6F9F6AB
:10533C00D9FEF9F6D8FED8FEB7FEB7FE76F697F68C
:10534C0055F676F634F635F613F613EEF3F5F3F56B
:10535C00D3F5F3F5D3F5D3F5F8F6F8FEF8F6F8F641
:10536C00F8F6F8F6F8F6F8F6F8F6F8F6D8F6D8F601
:10537C00B8F6D8F6B8FEB8FE97FEB7FE76F696FEEF
:10538C0035F655F614EE14F6F3EDF3EDF3EDF3F507
:10539C00F2F5F3F5D2F5F2F5F3F5F3F5F3F5F3F5E4
:1053AC00F3F5F3F5F3F5F3F5F3F5F3F5F3F5F3F5B1
:1053BC00F3F5F3F5F3F5F3F5D2F5F2F5F2F5D2F5E5
:1053CC00D3F5D3F5D3F5D3F5F3F5F3F5F3F5F3F511
:1053DC00F3F5F3F514F6F3F513EE13F634F634F6A1
:1053EC0055F655F676F675F6D7FEB7FED8FED7FE0F
:1053FC00F8FEF8FE19FFF9FEF9F6F9F6D9F6F9F60A
:10540C00D8FED8F6D8FED8FE19FFF9FED9EE98EEE4
:10541C0033B55BFFDEF72B6BFFEFBEE7F59C672127
:10542C009CDEDFFFEA720008056A00202DFE2AB41C
:10543C0085FDC6FDC9F46AFD2CD58BEDA561E5692A
:10544C00EAC427938AD5EBE54872405199F65DFF83
:10545C00D7F6D7FEB9EED9F6F9F6F9F6F9F6F9F66C
:10546C00F9F6F9F6D8FED9FED8FED8FEB7F6B7FE97
:10547C0096F697F676F676F613EE34EE13EE13EE0A
:10548C00F3EDF3EDD3EDF3EDF8FED8FEF8F6F8FE00
:10549C00F8F6F8F6F8F6F8F6F8F6F8F6D8F6D8F6D0
:1054AC00D8FED8F6D8FEB8FED8FED8FE97FEB7FECA
:1054BC0056F676F635F635F614EE14EEF3F514EEE4
:1054CC00F3EDF3F5D3EDF3EDF3F5F3F5F3F5F3F5C8
:1054DC00F3F5F3F5F3F5F3F5F3F5F3F5F3F5F3F580
:1054EC00F3F5F3F5F3F5F3F5D3F5D3F5D3F5D3F5F0
:1054FC00F3F5D3F5F3F5F3F5F3F5F3F5F3F5D3F5A0
:10550C00F3F5F3F5F3F5F3F5F2F5F3F513EE13F616
:10551C0034F614F655F634F6B7F696FEB7F6B7F63B
:10552C00F8FED8FEF9FEF8FEF9F6F9F6D9F6F9F61A
:10553C00D8FED8F6D8FED8FEB8F619FF1AF7B8EE92
:10554C00EF8BFAEEFFFF308CB8B53EE79CEF81088D
:10555C00DBD6FFFFFFFF2421F18BBDDE6993201802
:10556C0049ED6BE5ABFDE9F4EBEDAAF5AEEDADED78
:10557C00CBEDCDEDCCE56DFE8040EDCC99F670BC5D
:10558C005CFF98F6DBF6BAEEF9F6FAF6F9F6F9F6F0
:10559C00F9F6F9F6F8FEF9F6D8FEF8FED8F6D8FECC
:1055AC00B7F6B8F697F6B7F654F654F633F634F673
:1055BC00F3ED13EEF3EDF3EDD8FED8FEF8F6D8FECE
:1055CC00F8F6F8F6F8F6F8F6F8F6F8F6D8F6D8F69F
:1055DC00D8FED8F6D8FED9FEF8FEF9FEB8FED8FEF5
:1055EC0096F697F676F676F635F655F614F634F614
:1055FC00F3F514EEF3EDF3EDF3F5F3F5F3F5F3F555
:10560C00F3F5F3F5F3F5F3F5F3F5F3F5F3F5F3F54E
:10561C00F3F5F3F5F3F5F3F5D3F5D3F5D3F5D3F5BE
:10562C00F3F5F3F5F3F5F3F5F3F5F3F5D3F5D3F56E
:10563C00F3F5F3F5F3F5F3F5F2F5F2F513F6F2F500
:10564C0013F613F634EE34F675F655F697F696F621
:10565C00D7FEB7F6F8FED8FEF9F6F9F6D9F6F9F654
:10566C00D8FED8F6D8FED8FE39FFB7F6D9EE98EEAC
:10567C00C6419DFFFFFF13A5C841DFFFFDFFF2A44C
:10568C0039BEFBDEDFF7C731D9B5DFF74020463135
:10569C000EFEACBCCBFD2BEDEAFD89F5CCFDE8E4B0
:1056AC000CFEABF52EFE28DDCECC10F658F60028FD
:1056BC0099EEFAFEBAEEBAF6F9F6FAF6F9F6F9F64A
:1056CC00F9F6F9F6F9F6F9F6D8F6F9F6D8F6D9F6B8
:1056DC00D8F6D8F6B7F6D8F675F695F654F674F6FD
:1056EC0033F634F613EE13EED8FED8FEF8FEF8FEC1
:1056FC00F8F6F8F6F8F6F8F6F8F6F8F6D8F6D8F66E
:10570C00F9FEF8FEF9FED9FEF9FEF9FED8FED8FE38
:10571C00B8FEB8FEB7FEB7FE76F676F635F655F659
:10572C0014F634F6F3F514EEF3F5F3F5F3F5F3F5AF
:10573C00F3F5F3F5F3F5F3F5F3F5F3F5F3F5F3F51D
:10574C00F3F5F3F5F3F5F3F5D3F5F3F5D3F5D3F56D
:10575C00D3F5D3F5F3F5F3F5D3F5D3F5F3F5F3F57D
:10576C00F3F5F3F5F3F5F3F5F2F5F2F5F2F5F2F5F1
:10577C0013F6F2F513EE13EE34F634F676F655F620
:10578C00B7F696F6D8F6B7F6F9F6F9F6D9F6F9F6BD
:10579C00D8FED8F6D8FED8FE5AFFB8F698E698EEA2
:1057AC0004299DFFFFFF18C60008D8C5BEFF5CF793
:1057BC0017B5DFFFFFFFAC626852BDFF2341B2ACEF
:1057CC008EE5CEC48BF50EFE4AF50DFE4DF5CEFDE5
:1057DC004BED4CF56AED0CFE73FE2CDD2B8B05723C
:1057EC0057E67CFFF8F697E6F9F6F9F6F9F6F9F6CE
:1057FC00F9F6F9F6F9F6F9F6D8F6D9F6D8F6D9F6A7
:10580C00D8F6D8F6D8F6D8F6B5FEB6FE75F695FEEF
:10581C0054F674F633F634F6D8FED8FEF8FED8FEFD
:10582C00F8F6F8F6F8F6F8F6D8F6D8F6D8F6D8F67C
:10583C00F9FEF9FEF9FEF9FEF9FEF9FED8FEF8FEC6
:10584C00D8FED8FED8FED8FE76F697F656F676F643
:10585C0035EE55F614EE14EEF2F5F3F5F3F5F3F52B
:10586C00F3F5F3F5F3F5F3F5F3F5F3F5F3F5F3F5EC
:10587C00F3F5F3F5F3F5F3F5F3F5F3F5F3F5F3F5DC
:10588C00F3F5F3F5F3F5F3F5D3F5D3F5F3F5D3F52C
:10589C00F3F5F3F5F3F5F3F5F2F5F2F5F2F5F2F5C0
:1058AC0013F6F2F513F613F614F614F655F634F661
:1058BC0096FE76F6B7FEB7FED9F6D9F6D9F6D9F636
:1058CC00D9FED9FED9FED9FE57E619FF7BFF3BFF67
:1058DC00401032B52E94C541D0ACC449BFFFBDFFBA
:1058EC009283BFFFDFFF3294000837D60020B9EE59
:1058FC006EE54FD58BF5CEFDACFD6BFD4DFD4CFD36
:10590C008DFD2CFD8BF58BFD8DE5EDFD6251ACC451
:10591C003BFF78EEF8F619FFF9F6F8F6F9F6F9F61A
:10592C00F9F6F9F6F9F6F9F6D9F6D9F6D9F6D9F673
:10593C00D9F6D9F6D8F6D9F6D6FED7FE96F6B6FE37
:10594C0075F675F634EE54EED8F6D8F6D8F6D8F6D9
:10595C00D8F6D8F6F8F6F8F6F9F6F9F6D9F6D9F647
:10596C00D9F6D9F6D9F6D9F6F8F6F8F6F8FEF8F62F
:10597C00F8FEF8FEF8FEF8FEB8F6B8F697F6B7F6AD
:10598C0076EE76EE55EE56EE12EE13EEF2F5F2F5ED
:10599C00F2F5F2F5D2F5F2F5F3F5F3F5F3F5F3F5DF
:1059AC00F3F5F3F5D3F5D3F5F3F5F3F5F3F5F3F5EB
:1059BC00F3F5F3F5F3F5F3F5F3F5F3F5F3F5F3F59B
:1059CC00F3F5F3F5F2F5F3F5F2F5F2F5F2F5F2F590
:1059DC00F3F5F2F5F3F5F3F5D3F5D3ED13F6F3F5A3
:1059EC0034F614F655F634FEB8FEB7FEB9FEB8FE22
:1059FC00DAFED9FEDAFEDAFE78EEB9F6F8F619FF21
:105A0C00EEB400106262ACACC0406051B7DDE9820C
:105A1C00AA49BFFFDFFF16AD529C8C628361F3BCB9
:105A2C006DF5F1F58CFDCDFDABFDCBFD8CFDACFD2D
:105A3C004CFD0BFD2AED8DFDEAF589EDE0406BDDAB
:105A4C001CFF37DEB8F61BFFD9F6D9F6D9F6D9F616
:105A5C00D9F6D9F6D9F6D9F6D9F6D9F6D9F6D9F6C2
:105A6C00D9F6D9F6D8F6D9F6D7F6D8F6D7F6D7F6BA
:105A7C00D7F6D7F6B7F6D7F6D9F6D9F6D9F6D9F6CA
:105A8C00D9F6D9F6D9F6D9F6D9F6D9F6D9F6D9F692
:105A9C00D9F6D9F6D9F6D9F6F8F6F8F6F8F6F8F606
:105AAC00F8F6F8F6F8F6F8F6D8F6D8F6B8F6B8F63A
:105ABC0077EE97EE56EE77EE33F634EE13F613F6EA
:105ACC00F3EDF2EDD2EDF2EDF3F513F6F3F5F3F5AC
