:020000040800F2
:10000000680600206D0100087501000877010008EE
:10001000790100087B0100087D0100080000000054
:100020000000000000000000000000007F01000848
:10003000810100080000000083010008850100081C
:100040008701000887010008870100088701000870
:100050008701000887010008870100088701000860
:100060008701000887010008870100088701000850
:100070008701000887010008870100088701000840
:100080008701000887010008870100088701000830
:100090008701000887010008870100088701000820
:1000A0008701000887010008870100088701000810
:1000B000790400088701000887010008870100080B
:1000C00087010008870100088701000887010008F0
:1000D00087010008870100088701000887010008E0
:1000E00087010008870100088701000800F002F876
:1000F00000F02CF80AA090E8000C82448344AAF196
:100100000107DA4501D100F021F8AFF2090EBAE893
:100110000F0013F0010F18BFFB1A43F0010318473B
:100120008004000090040000002300240025002625
:10013000103A28BF78C1FBD8520728BF30C148BF4A
:100140000B6070471FB51FBD10B510BD00F031F832
:100150001146FFF7F7FF00F0D9F900F04FF803B4AC
:10016000FFF7F2FF03BC00F057F800000948804792
:1001700009480047FEE7FEE7FEE7FEE7FEE7FEE789
:10018000FEE7FEE7FEE7FEE704480549054A064BA1
:100190007047000011040008ED000008680000200E
:1001A000680600206802002068020020704770473F
:1001B0007047754600F02CF8AE4605006946534678
:1001C00020F00700854618B020B5FFF7DDFFBDE839
:1001D00020404FF000064FF000074FF000084FF0AE
:1001E000000BAC46ACE8C009ACE8C009ACE8C009FB
:1001F000ACE8C00921F007018D46704710B50446F0
:10020000AFF300802046BDE81040FFF7A8BF000014
:10021000004870470000002001491820ABBEFEE7EF
:10022000260002007047000041F21801C4F20201EA
:10023000086840F00400086040F60001C4F20101C3
:10024000086800F070400860086843F23332C0F27A
:10025000330210430860704781B00090009840F668
:100260000C01C4F20101086001B0704780B500F0D4
:1002700001F880BD84B000200390029041F200019B
:10028000C4F20201086840F480300860FFE741F2E0
:100290000000C4F20200006800F4003002900398ED
:1002A00001300390FFE702990020019039B9FFE780
:1002B0000398B0F5A06018BF01200190FFE70198F6
:1002C000C0070028E3D1FFE741F20000C4F20200BA
:1002D00000688003002803D5FFE70120029002E0B8
:1002E00000200290FFE70298012851D1FFE742F277
:1002F0000001C4F20201086840F0100008600868BC
:1003000020F007000860086840F00200086041F231
:100310000401C4F2020100910868086008680860DE
:10032000086840F480600860086820F47C10086069
:10033000086840F4E810086041F20001C4F20201CC
:10034000086840F080700860FFE741F20000C4F2E6
:10035000020000688001002801D4FFE7F5E741F2C0
:100360000401C4F20201086820F003000860086874
:1003700040F002000860FFE741F20400C4F202000E
:10038000006800F00C00082801D0FFE7F4E700E067
:10039000FFE704B07047000080B582B00190FFF71E
:1003A00043FF4FF0804100200880019801382C2243
:1003B000C4F2000210800C22C4F20002108840F047
:1003C00001001080088840F00100088002B080BD64
:1003D00080B582B00190FFF727FF019840F26001DD
:1003E000C2F2000100910988405CFFF735FF0098D8
:1003F00001880131018000881F2807D1FFE740F202
:100400006001C2F2000100200880FFE702B080BD59
:1004100080B541F20002C4F20202106840F001000F
:10042000106041F20401C4F2020108680023CFF613
:10043000FF031840086010684FF6FF73CFF6F663AD
:1004400018401060106820F480201060086820F4C4
:10045000FE00086041F20801C4F202014FF41F00DF
:100460000860FFF703FF4EF60851CEF200014FF08F
:100470000060086080BD000080B540F27E50C0F68C
:100480000000FFF7A5FF80BD81B08DF803009DF946
:10049000030000280ED4FFE79DF9031001F01F02AE
:1004A000012090404A094EF20011CEF2000141F8BD
:1004B0002200FFE701B0704782B08DF8070000917D
:1004C0009DF9070000280AD4FFE7009800019DF974
:1004D00007104EF20042CEF2000288540BE0009862
:1004E00000019DF8071001F00F014EF61452CEF2F4
:1004F00000028854FFE702B07047000080B582B068
:1005000001900198FFF748FF02B080BD80B584B02C
:1005100000200190039000F00FF801991C20029038
:10052000FFF7CAFF0298FFF7AFFF42F6E510FFF7AB
:10053000E5FFFFE7FEE7000041F21C01C4F2020103
:10054000086840F0010008604FF0804100200880FA
:100550002822C4F20002472010802C22C4F200029C
:1005600042F2273010800C22C4F20002108840F0C2
:1005700001001080088840F00100088070470001E9
:100580000205090E141A20262C32363B3D3F3F3F10
:100590003D3B36322C26201A140E090502010000BC
:1005A000B0050008000000206806000028010008CF
:040000050800016D81
:00000001FF
